:020000040800F2
:1000000010090020550200089934000857340008F0
:1000100000000000000000000000000000000000E0
:10002000000000000000000000000000853500080E
:1000300000000000000000009B340008D3440008CA
:10004000670200080000000067020008670200085D
:100050006702000867020008670200089923000889
:10006000000000006702000867020008911F0008F6
:10007000670200086702000867020008000000002D
:10008000670200086702000800000000670200081D
:10009000670200086702000867020008670200089C
:1000A000670200086702000867020008670200088C
:1000B000694A000800F002F800F0BDF80CA030C852
:1000C000083824182D18671EA246AB4654465D46D4
:1000D000AC4201D100F0AFF87E460F3EB6460FCCE1
:1000E0000126334200D0FB1A3343A246AB461847E1
:1000F0000450000024500000103A02D378C878C1A0
:10010000FAD8520701D330C830C101D504680C6059
:10011000704700000023002400250026103A01D378
:1001200078C1FBD8520700D330C100D50B607047AF
:1001300010B56E2902D100F089FB10BD702902D1E3
:1001400000F0CBFC10BD662902D104F0D9FE10BD31
:10015000652902D104F0D4FE10BD672902D104F054
:10016000CFFE10BD612902D104F0D2FE10BD03689C
:100170001B0A01D380231943692902D100F030FB07
:1001800010BD642902D100F02BFB10BD752902D1EE
:1001900000F026FB10BD6F2902D100F049FC10BD14
:1001A000782902D100F086FC10BDE92902D100F0C7
:1001B000E5FB10BDE42902D100F0E0FB10BDF529FC
:1001C00002D100F0DBFB10BDEF2902D100F03CFCB6
:1001D00010BDF82902D100F07BFC10BD0368DB09DB
:1001E00001D380231943632902D101F05EF910BDC8
:1001F000732902D101F061F910BDE32902D101F0A8
:100200006BF910BDF32902D101F06EF910BD002089
:1002100010BD1FB501F0C8F904000020002104F052
:10022000ABFD401C60600020002104F08FFDE06009
:100230001FBD10B510BD01F090F91146FFF7E9FFA1
:1002400004F05CFC01F024FD03B4FFF7F2FF03BCF3
:1002500001F06EFD0748804707480047FEE7FEE7CC
:10026000FEE7FEE7FEE7FEE704480549054A064BC0
:10027000704700003F450008B5000008100300204B
:100280001009002010050020100500207CB51D4637
:1002900016460C00009001D00019401E084B7B440C
:1002A0002A4669460190304600F0E9FA002C0546DE
:1002B00003D06946002000F0F5FA28467CBD000016
:1002C0000D06000030B5441C03E00178401C0029F5
:1002D0000DD08107F9D10B4BDD0104C8D11A914330
:1002E0002940FAD0001B0A0603D0C01E30BD001BF7
:1002F00030BD0A0401D0801E30BD0902FCD0401E72
:1003000030BD00000101010101E004C0091F042902
:10031000FBD28B0701D50280801CC90700D0027078
:10032000704700290BD0C30702D00270401C491E41
:10033000022904D3830702D50280801C891EE3E7CB
:100340000022EEE70022DFE7002203098B422CD3D4
:10035000030A8B4211D300239C464EE003460B4315
:100360003CD4002243088B4231D303098B421CD377
:10037000030A8B4201D394463FE0C3098B4201D369
:10038000CB01C01A524183098B4201D38B01C01AA1
:10039000524143098B4201D34B01C01A5241030918
:1003A0008B4201D30B01C01A5241C3088B4201D3C7
:1003B000CB00C01A524183088B4201D38B00C01A74
:1003C000524143088B4201D34B00C01A5241411A9B
:1003D00000D201465241104670475DE0CA0F00D07E
:1003E0004942031000D3404253409C460022030977
:1003F0008B422DD3030A8B4212D38901FC2212BAFD
:10040000030A8B420CD3890192118B4208D38901D4
:1004100092118B4204D389013AD0921100E08909EC
:10042000C3098B4201D3CB01C01A524183098B42CD
:1004300001D38B01C01A524143098B4201D34B01B6
:10044000C01A524103098B4201D30B01C01A524119
:10045000C3088B4201D3CB00C01A524183088B42A0
:1004600001D38B00C01A5241D9D243088B4201D329
:100470004B00C01A5241411A00D201465241104667
:1004800063465B1001D34042002B00D549427047C0
:1004900063465B1000D3404201B50549002802DCE9
:1004A000491C084000E00846C046C04602BD00BFE7
:1004B000FFFFFF7F70477047704700000121C905AB
:1004C0000123411842001B06D3185B0E0AD0C1104D
:1004D0000722D206891840075242D14201D5520064
:1004E00089187047090208D50146002A03D0C10FB8
:1004F000C9070020704710467047420202D0002012
:1005000002497047072109050143F4E70000F87F1D
:10051000F0B5FF252D04C609C209FF2704462E4069
:100520000137CB093E4348402A402B400746002A6A
:100530006BD0002B69D0AA4267D0AB4265D00028AF
:1005400000DA32460125ED0529432C430902200239
:10055000090AD21A4B0C7F24E31A434C000A7C444C
:10056000E35C7D242404121914145B00A218884251
:1005700001D3521C00E0400049420C465C43241168
:100580005C43DB016415E318040A5C43C502200DDB
:100590000C4644436419250A5D432303EC0C0D46C5
:1005A000654300030019EB184C42A34201D35B18CA
:1005B000401CD4052018002B07D05B00C91804D3B9
:1005C000401C002901D1400840003F2189048A4293
:1005D00009D3002A08DC1106090F04D003214907BA
:1005E0004018C00FC007F0BD012241001206891853
:1005F0007F2252069142F6D205214907C84201D511
:100600009010F0BDFF20C005F0BD002F00DA32468B
:100610001648AA4207D2AB4205D21902090E17D0DA
:10062000F80FC007F0BDFF2563002D06AB42F9D8D7
:100630004900A942F6D8AB4201D1A942F2D0A94261
:1006400001D1002101E061004908D0050843F0BD57
:100650001102090EFBD0FF200243D005F0BD0A466F
:100660000146104654E70000BE4900000000C07F6C
:1006700010B501469E240002CA15A307002A02D025
:100680001843002A04DBA21A002A0CDDD04010BD5A
:100690001206120E01D140004008A21A03D4D04025
:1006A00040420028F3DDFF2248001206904201D9A3
:1006B000002010BDC817C043584010BD1F22030CB6
:1006C00002D10F2200041CD0030E01D10002083A0F
:1006D000030F01D10001121F830F01D18000921E70
:1006E000002801DB4000521ED20551180212511899
:1006F0001922904004D3491C002801D1490849001F
:1007000008467047C10FC90700D040420122920736
:100710001143D3E701218907D0E770B50446856905
:100720000068C10601D5302600E02026C00707D0AA
:1007300070BD62683046A1689047206A401C206204
:100740006D1EF6D570BD70B5044685690078C0078A
:1007500007D170BD6268A16820209047206A401CC4
:1007600020626D1EF6D570BD09684A0501D540B2FC
:100770007047C905FCD500B2704709684A0501D524
:10078000C0B27047C905FCD580B2704770B50C4641
:100790000546012A05D02878800600D5EA6900239D
:1007A00002E0012305E05B1C934202D2E05C0028DA
:1007B000F9D1A869E618C01AA861286AC018286289
:1007C0002846FFF7AAFF04E06A682078A968641C3D
:1007D0009047B442F8D32846FFF7B5FF70BD00003C
:1007E000F7B5002575291068009914A611D0FFF7F8
:1007F000BBFF002802DA404211A608E00099096810
:100800008A0701D50FA602E0490704D50EA60125E7
:1008100001E0FFF7B2FF009F0024243704E000F05E
:1008200088FE30313955641C0028F8D12B463246F9
:100830002146009800F05FFAFEBD000000000000B5
:100840002D0000002B00000020000000116802684D
:10085000006A530501D5087009E0D30501D5088069
:1008600005E0130602D5C21705C100E008600120AB
:100870007047000001694A1C02610878704700B5A2
:100880008FB00291002105910549019379440391AC
:1008900011460490684600F02DF90FB000BD00002D
:1008A000E5FFFFFF0A681070521C0A6070470CC910
:1008B00008399A4202D2531C0B6010707047000036
:1008C000F7B50446154686B02B487844002703C880
:1008D0003E460090019111E007986A467100415A26
:1008E00002A800F005FE411C07D02178890603D537
:1008F000E269391891420ED83F18761C207880069C
:1009000002D5E069B84206DDAE42E5DB079871002A
:10091000405A0028E0D1A069C01BA0612046FFF723
:10092000FCFE154878445A3803C800900020019115
:1009300016E041006A460798415A02A800F0D8FD27
:100940000590401C0AD0002505E0626802A8A16855
:10095000405D90476D1C05988542F6D30498401C75
:10096000B0420490E5DB206AC01920622046FFF700
:10097000EAFE09B0F0BD000092460000F7B5D21DB6
:100980000025D20815A6D200F52905CA11D0002AE3
:1009900005DA00214042914111A60A4608E000997B
:1009A00009688B0701D50FA602E0490701D50EA6FD
:1009B00001251146009F0024243704E000F05EF971
:1009C00030323A55641C02460A43F7D12B46324670
:1009D0002146009800F08FF9FEBD000000000000E5
:1009E0002D0000002B0000002000000070B5044620
:1009F0000021243408E05507D2086D0F30356554C6
:100A00005D072A43DB08491C15461D43F3D10468E2
:100A1000002310A2250708D520252C400C4304D024
:100A2000C46901230CA2641EC46100F064F970BDA6
:100A300010B5044621461068FFF79FFE00230246CA
:100A40002046FFF7D3FF10BDD21DD108C9000CC945
:100A5000CCE700000000000030000000F8B50F46B1
:100A60000188090502D5224C7C4402E0204C7C44DC
:100A70000E3405460021243508E016071209360F0A
:100A8000A65D6E541E0732431B09491C16461E43C1
:100A9000F3D1224604780023240705D5702F06D011
:100AA000002901D00223113200F025F9F8BD0123FD
:100AB0001032F9E770B504460D4621461068FFF77D
:100AC0005CFE0023024629462046FFF7C7FF70BDA3
:100AD000D21DD308DB000CCBC0E730B40368202460
:100AE0001268234303600823C36130BC0023B5E7C9
:100AF000FC440000F3B50446002081B0206220468B
:100B0000E1688847002872D0252802D06268A16871
:100B1000ABE0594F00267F442046E16888472028F3
:100B2000054608DB312D06D27819203800780028D8
:100B300001D00643F0E7B00701D50420864300202A
:100B4000E0610746A0612A2D0AD0284604F0F6F895
:100B5000002827D0B8000019303D0090856119E0C9
:100B60000298BA00121902C8916102902046E16809
:100B70008847012F054617D1E06900281FDA202099
:100B800086431CE000980A21806948430099401977
:100B9000303888612046E1688847054604F0CEF881
:100BA0000028EFD1012F0AD02E2D08D12046E16870
:100BB00088470546202006437F1C022FC3DBA0691F
:100BC000002803DA4042A06101200643F00701D06B
:100BD000102086436C2D0BD0682D09D04C2D3CD0B5
:100BE0006A2D38D0742D38D07A2D36D016E040E0FA
:100BF000E1682F4620468847B842054609D16C2F48
:100C000029D001208002E168064320468847054636
:100C100004E06C2F1DD0FF2001300643002D28D0AA
:100C200028464138192803D80120C0020643203540
:100C3000204626602946029A1646FFF779FA0028D0
:100C400010D001280BD0F61DF008C000083002902B
:100C500055E74020E1E78020D5E70020D3E7361DA7
:100C600002964CE762682846A1689047206A401CBB
:100C700044E7206AFEBD0000764400000B4670B5D4
:100C8000024689078008084319469D08141AA9419D
:100C900025090807054308092C194841250A0106BA
:100CA0000D43010A2C194141200C0D0428430D0C61
:100CB00000194D41002140194D41C0086907084302
:100CC000E908840F8D002543840024184D41241920
:100CD0006D41121BAB4107E00925ED432C11521960
:100CE00063410024401C61411C460A250026551B17
:100CF000B441F1D270BDFFB504460D4681B0243039
:100D000000902168880604D51022E0699143216093
:100D100000E00120A84201DD471B00E00027049805
:100D2000A1697A191018081AA0612078C00602D4A7
:100D30002046FFF7F2FC002608E003986268A168ED
:100D4000805D9047206A401C761C20620498864291
:100D5000F3DB2078C0060AD52046FFF7DEFC06E06C
:100D60006268A16830209047206A401C20623846A3
:100D70007F1E0028F4DC07E000986268A168405DEF
:100D80009047206A401C206228466D1E0028F3DC34
:100D90002046FFF7D8FC2078000602D5022005B0D7
:100DA000F0BD0120FBE70000FFB50C461E468FB0EA
:100DB00003CA089009914F007D0D00D16D1E0021DE
:100DC00008460020C0460321099A89050840002AE8
:100DD00003DA8200801840080840800D01280A903C
:100DE00002DD0020C0430A90089807430DD0F04868
:100DF000F049281848430714189800281DD0754258
:100E0000291E1DDD0A9842421BE01898012802D0D5
:100E10000020302104E00020F24305E02154401C72
:100E2000B042FBDB30460022189B002121540F9971
:100E30008B600A60486013B0F0BDBD1B6D1CDFE71E
:100E40000A9A002900DA69420BA800F0F5FB0BAB07
:100E500007CB03AB07C30899099800F059FC6B4610
:100E600007C30146D4480918002D00910BDDD24973
:100E700003980A9A49424018002303A90390684640
:100E800000F0B6FE08E003990A9A0023081803A9A7
:100E90000390684600F056FE6B4607C30004000C42
:100EA00003D00020C043410800E01046189A002AF1
:100EB00003D00022009215461EE0751E05D4FFF7F0
:100EC000DDFE303262556D1EF9D5012208430796CA
:100ED00002D000227F1C04E02078302801D10022BB
:100EE0007F1E002A069787D01EE0112D07DAFFF734
:100EF000C5FE303262556D1C02460A43F5D10843E7
:100F000003D00098002819D00EE00021681E05E0EB
:100F1000235C625C63542254401E491C8142F7DB0F
:100F2000A81B401E07950690079A18990020A05408
:100F30000F98079B069A81600CC07CE71126002061
:100F4000189059E7D21DF0B50D460446D10893B06C
:100F5000C90003C90C900D9103F0DAFE02460D980A
:100F6000C00F01D02D2007E02068810701D52B207C
:100F700002E04007C00F4001032A0F9001D0072A6A
:100F800005DB03462946204600F012FB0EE12078DF
:100F9000800601D5E76900E006272846652D04D0C4
:100FA000662814D0672D69D12DE00020112F009004
:100FB00001DB112300E07B1C0CAA03A910A8FFF79A
:100FC000F3FE1199002610987D1C0E9142E001203D
:100FD0003B460CAAC0070B900120009003A910A863
:100FE000FFF7E2FE119D12981099002600280E9539
:100FF00001D1781C0D18781B02D446427D1C761E48
:10100000E81B00903AE0012F00DA01270020112FA1
:10101000009001DD112300E03B460CAA03A910A8B3
:10102000FFF7C2FE11993D46109800260E912178D7
:1010300009070BD40E99A94200DA0D4603A9012D28
:1010400004DD4A19203AD27F302A06D0B84201DAAC
:10105000011D04DA012100910FE06D1EEFE7002869
:1010600002DC86192D1A03E0411CA94200DD0D4661
:10107000801B401C00900120C0070B9020780007C7
:1010800005D40098A84202DB0020C04300906946C6
:101090000020C8720B98012102AF0337C9078842AC
:1010A00025D0022010902B2011900B9800280BDAED
:1010B00040420B902D20119006E00B9800F039FA79
:1010C00030317F1E0B9039701099481E0029109006
:1010D000F3DC0B980028F0D111987F1E387020881F
:1010E000000501D5452000E065207F1E387001A86D
:1010F000C01BC01D0B900F98002800D00120411983
:101100000098C01709180B980818A169081A401E02
:10111000A0612078C00602D42046FFF7FEFA0F989F
:10112000002805D06268A1689047206A401C2062B0
:101130002078C00625D52046FFF7EFFA21E0002EE3
:1011400007DB0E98B04204DD03A86268805DA168E9
:1011500002E06268A16830209047206A761C401C3B
:1011600020620098401E002800900AD100F01CFA6E
:10117000C06862680168405CA1689047206A401CB2
:10118000206228466D1E0028D9DC07E062683878A6
:10119000A1687F1C9047206A401C20620B99481E62
:1011A00000290B90F2DC2046FFF7CDFA032042E63F
:1011B00001FCFFFF104D0000E1DFFFFFD21DF0B585
:1011C00004460D46D0088DB0C00046680768314619
:1011D000384603F09DFD0246F00F01D02D2307E0B5
:1011E0002068810701D52B2302E04007C00F43018F
:1011F0006846002B037001D0012000E00020032A84
:101200000A9001D0072A04DB2946204600F0D0F9D5
:101210002DE12078800601D40D2500E0E5697000FD
:10122000400D0D2D01904BDA300D00210B9008463A
:101230000020C046032189050840002E05DA8200FF
:101240008018C20F1018401008408015012801DDD9
:101250000020C043A9000023182906D39C460A4653
:101260000123183A1B07D34003E001221205CA40AC
:1012700094460C31202902D33A46203900E0324608
:101280008A40002802DD002A06D119E0002817D183
:101290000121C9078A4213D3194663467F185E416C
:1012A000002806D10120C007824202D108468743A8
:1012B0009E430B98310D814202D00198401C019051
:1012C0002088000502D57149794402E06F497944CC
:1012D00019396B460A9830221A540A980A7C401C25
:1012E0001A54401C0A900198002801DC302000E0CC
:1012F00031201872019A0120002A02D0644BD218C2
:1013000004E072003A4302D0614A521C0192002D5F
:1013100002DC2278120703D56A462E205072022082
:101320000022864694460CE032033601120F6D1EF1
:101330008B5C02AA13546246521C401C9446052A38
:1013400001DA002DF0DC002202AE08E03B0F3F0185
:10135000CB5C521C6D1E3354401C082A01DA002D50
:10136000F4DC23689A0601D511E0401E704504DDC7
:101370003218203AD27F302AF7D0002807DD321801
:10138000203AD27F2E2A02D11A0700D4401E002D07
:1013900003DD3E223254401C6D1E497C31540199BC
:1013A000401C002906DA2D21471C31540198404287
:1013B000019003E02B21471C315401987D21C90085
:1013C000884206DBFEF7CAFF3030F0557F1C0191E2
:1013D00001E0642808DB01986421FEF7BFFF30308C
:1013E000F0557F1C019101E00A2806DB01980A21D3
:1013F000FEF7B4FF3030F0557F1C01980A21FEF74C
:10140000ADFF3031F1550A98A1697F1C7A19101887
:10141000081AA0612078C00602D42046FFF77DF9A3
:10142000216A6E460A980818206204E062683078E3
:10143000A168761C90470A98401E0A90401CF5D17E
:101440002078C00602D52046FFF767F902AE09E012
:101450003078761C3E280DD06268A1689047206ADB
:10146000401C20627F1EF3D22046FFF76CF90DB0BE
:101470000320F0BD206A4019206203E06268A16881
:10148000302090476D1EEDD3F8E70000E83C0000E7
:1014900001FCFFFF10B54369002B02D0C046C046D7
:1014A00001E0FFF773F9012010BD127801462431E5
:1014B0000A7000224A700122ECE711680022D24330
:1014C000E8E710B54369002B02D0C046C04601E0F2
:1014D000FFF7F6F9012010BD1288014624318284FD
:1014E0000022C2840122ECE711680022D243E8E71F
:1014F000F8B516460C46054600F04EF80368FF2086
:101500000230C05C012807D0FF2C0FD8185D0028DE
:101510000CD001202C70F8BDFF3332462146083331
:101520001868C71828460023B847F8BD0020C043F4
:10153000F8BD01468008081A02091018020A10189E
:10154000020C1018C008820012185200891A01E01B
:10155000401C0A390A29FBD27047754600F0A0FBEF
:10156000AE46050069465346C008C000854618B01F
:1015700020B5FEF779FE60BCB64600260027C0C540
:10158000C0C5C0C5C0C5C0C5C0C5C0C5C0C5403D3B
:10159000490849008D46704710B500F005F8001D58
:1015A00010BD00BFD53700000048704798000020EC
:1015B000F8B51F46044601230068DB0203260146F6
:1015C0001840072A05DB002801D017A506E017A55B
:1015D00004E0002801D016A500E016A510208143E4
:1015E0002160A069C01E002FA06101D0401EA06133
:1015F0002046FFF792F8002F09D038466268A168AC
:101600009047206A401C2062C01C206206E0206ACD
:10161000FAE762682878A1686D1C9047761EF8D2B8
:101620002046FFF790F8F8BD4E414E006E616E0007
:10163000494E4600696E6600F7B516468AB03348D3
:1016400078446C4603467C33C06F5A689B680DC46F
:101650002E487844763003AC0DC80DC43720C00145
:10166000081837211B30FEF779FE05460C46803DF1
:101670001B3C02D56442012000E0002000270990B5
:1016800010E0E0070CD00C20204978437944324622
:101690004C3941186846012300F054FA6B4607C3E1
:1016A00064107F1C002CECD1184F7F442E3F16E0B5
:1016B000E80712D02001C0190EC8069108930792BE
:1016C0000068F04201D1981908903246012306A91A
:1016D00003A800F037FA03AB07C36D10641C002D9C
:1016E000E6D10998002806D032466946012303A8AE
:1016F00000F07EFA05E001233246694603A800F0B7
:1017000021FA0A9B07C30DB0F0BD00008439000028
:10171000034640000A4610B5400D0BD00121C90711
:101720000F24A40200191C0364082143540D214313
:10173000D20207E000210120F2E7D40F4900214343
:101740005200401E0029F8DADB0FDB07184310BDFA
:10175000FFB50D46144685B04868516803F0C0FADD
:1017600000910190A868A16803F0BAFA0291039071
:10177000A868616803F0B4FA029A121882420292D1
:1017800001D2012000E00020019A0B18D218002895
:10179000019202D08A4202D903E08A4201D201209A
:1017A00000E000200099081800906868A16803F024
:1017B00097FA029A12188242029201D2012000E0A6
:1017C0000020019A0B18D2180028019202D08A42F8
:1017D00002D903E08A4201D2012000E000200099F2
:1017E000081800902868216840004900400849080E
:1017F0004018FA49471814E001994000C90F0843FE
:101800000090019802994000C90F08430190029886
:1018100003994000C90F08430290039840007F1EBF
:10182000039000980028E7DA0898002801D0EC4ED1
:1018300000E00026B74201DA012000E00020002885
:1018400004902AD0F71BF806C00E15D0029B202169
:10185000091A039A8B401A430392029A019BC240D1
:101860008B401A430292019A009BC2408B40009920
:101870001A430192C14000917B110DD06F460320A5
:10188000C11A03D500218200B95003E08A0081000B
:10189000BA587A50401EF3D537460398029900286B
:1018A00000D00120014308980291002808460CD07E
:1018B000002800D001200199019A4905084301211F
:1018C000D20AC902D202019200E001210E9B01223C
:1018D000D207012B02D0002B03D013E0002807D140
:1018E00020E0904204D890420CD1019B0B4209D0D9
:1018F000019B5918019105D10099491C009101D112
:101900007F1C009200280DD0102108460020C04600
:101910000498002806D00F98002803D00821084614
:101920000020C04628682168019B009A4840C10FEA
:101930000598C90739430EC009B0F0BDFFB587B09F
:10194000099A089808995368926840688968964689
:101950000022039317469446089A12685300099A86
:101960005B081268520052089A1A9E4BD4180A9AC1
:10197000002A01D0352200E04022069200220123F5
:1019800015460492DB07059324E0002D05D175462A
:101990000346039E4D1BB34109D375466646039B20
:1019A000491B049D9841059B7519AC465F416346F0
:1019B0003B4308D0059B049EDD0776082E435B0859
:1019C0000496059301E0521E641EC50FED074918E9
:1019D0004041521C069B9A42D7DB002D04D175462C
:1019E000039A6B1A824101D203200CE0039A0B4642
:1019F0006B404240134303D0014303D0012002E077
:101A0000022000E000206146019100210097029130
:101A10000A99002905D0614640020143704B0191AB
:101A200002E08007002302909C4201DA012000E0DE
:101A3000002007003AD01A1BD006C00E15D0029D18
:101A40002021019C091AC5408C402543029C8C40F2
:101A500000D001242543019C0295009DC4408D4087
:101A600000992C430194C140009154111DD06D4642
:101A70000221002202290CD10320001B07E00028CC
:101A800004DB8600AE59002E00D00122401C032842
:101A9000F5DB081B02D588002A5004E08000285896
:101AA00010438A00A850491EE3D51C460A98002816
:101AB00002980CD0002800D001200199019A490514
:101AC00008430121D20AC902D202019200E0012199
:101AD000109B0122D207012B02D0002B03D013E070
:101AE000002807D11FE0904204D890420CD1019BFE
:101AF0000B4209D0019B5918019105D10099491C4D
:101B0000009101D1641C009200280CD010210846DD
:101B10000020C046002F06D01198002803D00821CD
:101B200008460020C04608980999019A009B006861
:101B300009684840C10F0798C907214382600AC05D
:101B40000BB0F0BD00B585B0019300920A46014686
:101B5000002302A8FFF7FCFD02A807C805B000BDDE
:101B6000FFB50A461F4685B00799019301230091EE
:101B7000014602A8FFF7ECFD02990398049ECA0FE4
:101B80004900D20700920F22490892028C1A0021C4
:101B9000002800DB0C46450013486D08844214D32E
:101BA000079A002A04DA441E0026104DF64302E08C
:101BB00004460D460E46102108460020C046002F60
:101BC00003D0042108460020C0462005E90A084346
:101BD000009908436905F20A1143ADE602C0FFFF10
:101BE000013C0000FF3F0000FF070000FFFFFF7FF8
:101BF00000B585B0019300920A460146002302A871
:101C0000FFF79CFE02A807C8A8E7FFB50A461F46D3
:101C100085B00799019301230091014602A8FFF7BF
:101C20008DFE02990398049ECA0F4900D2070092C4
:101C30000F22490892028C1A0021002800DB0C4672
:101C4000450011486D08844214D3079A002A04DA2B
:101C5000441E00260D4DF64302E004460D460E4696
:101C6000102108460020C046002F03D0042108465A
:101C70000020C0462005E90A084300990843690589
:101C8000F20A114358E60000FF070000FFFFFF7F44
:101C900010B50446C046C0462046FEF7D5FA10BD32
:101CA0000048704778000020024670B50A4392074A
:101CB0002AD11E4DEE0104C808C9541B9443344078
:101CC00017D0D0B2D9B2401A2106014310D190B238
:101CD00099B2401A210401430AD110021902000AE4
:101CE000090A401A2102014302D1100E190E401AAE
:101CF00070BD9A42DFD010BA19BA884201D90120CA
:101D000070BD0020C04370BD02780B78401C491C98
:101D1000002A09D09A4207D102780B78401C491C4E
:101D2000002A01D09A42EFD0D01A70BD0101010102
:101D300001491820ABBEFEE72600020070470000F4
:101D4000DF480179022913D001294BD18179052976
:101D500048D8C0467944097949008F440214254384
:101D6000431B00210170C2788218127A427038E059
:101D7000C179491E042935D87944097949008F442D
:101D800002311A240900C1784118097A0170002132
:101D9000417026E0C17806224A438118CA7B02704E
:101DA0008A7B4270097C1CE0002101704170C1787F
:101DB0004118097A15E0C17806224A4381180A467B
:101DC0002C32537803702C2308E0C17806224A4352
:101DD00081180A464A32537803704A23C95C41701D
:101DE000917881707047C046F0B58FB04E4EB37891
:101DF0000990C01AC3170E90C0185840F378089184
:101E0000CC1AE11763184B40984200DC1846317930
:101E10000792551AE9176A184A40904200DC1046AA
:101E20000D90FEF76FFC07462046FEF76BFC394627
:101E3000FEF76EFB0C90FEF741FB069005912846DD
:101E4000FEF760FC3946FEF763FB0B90FEF736FBAE
:101E500004460D460E98FEF755FC39460D9FFEF7D9
:101E600057FB0A90FEF72AFB024606980090059859
:101E700001ABB1C32DA00B4600F026FA0021C8B279
:101E8000874248D90E91B1680A9802F08BFF044648
:101E9000B06031690C9802F085FF07463061F16847
:101EA0000B9802F07FFFF060FEF7E2FB0546307111
:101EB0003846FEF7DDFB0746F0702046FEF7D8FBFC
:101EC000B070C0B2F9B20D9FEAB202F0DCFA32791A
:101ED000F178B07802F0F3F93279F178B07802F065
:101EE00014FA3279F178B07802F035FA3279F17873
:101EF000B07802F056FA3279F178B07802F077FAD9
:101F00003279F178B07802F098FA012000F044FBC1
:101F10000E99491CB3E7079830710898F07009983A
:101F2000B0700FB0F0BDC046D8000020737465706B
:101F30003A25662C25662C25662C205B25645D00E1
:101F400070B50C460546CB4E327902F0CBF93279AA
:101F50002846214602F0ECF932792846214602F063
:101F60000DFA32792846214602F02EFA32792846B7
:101F7000214602F04FFA32792846214602F070FAE3
:101F800070BDC04680B5BB4A127902F08FFA80BDA1
:101F900080B5034800F04BFA024800F048FA80BDD3
:101FA00030020020EC01002070B5C46B056C0126E6
:101FB000AE4066600468636040681028134600D035
:101FC0000B46A360102800D01146E16070BD0000F0
:101FD00010B500F001FC074C2168401A80087D28EC
:101FE00006D300F0F9FB20600348202100F0E5FB58
:101FF00010BDC046000300200004004810B500F0EA
:10200000EBFB1C4C2168401AC82831D300F0E4FBDC
:10201000206001F043FA044680B21749884227D075
:10202000E00405D415A000F04FF916480C2101700A
:10203000E00505D414A000F047F91248082101700A
:10204000A00505D412A000F03FF90E480921017047
:10205000600505D410A000F037F90A480A21017084
:10206000200505D40EA000F02FF906480B210170C1
:1020700010BDC04604030020FFFF000043494E305E
:10208000000000007400002043494E3400000000AE
:1020900043494E330000000043494E320000000027
:1020A00043494E310000000076484178054A1170DE
:1020B0000178517080789070322090807047C046CF
:1020C00000000020F802002070B5694C217800293A
:1020D0005FD0684D0120A8710839042957D8C0463F
:1020E0007944097949008F44020C1C232E00287082
:1020F00068A000F0E9F86348C17802293AD3491E84
:102100001FE0604E0221317128706AA000F0DCF8F7
:10211000F079401EC0B2032822D8C1006848C840E8
:102120001FE029784840287000291CD053A11BE0EB
:10213000287055A000F0C8F85248C178032919D872
:10214000491CC17016E028706871FF2002304D49AB
:1021500088806878401C6870C0070ED051A10DE0DF
:102160000320F07106E044A145A000F0ADF8287806
:10217000002807D0FFF7E4FD09E048A14AA000F0DD
:10218000A3F804E03F4800210170417081700020F5
:102190002070384EB07901282AD13A4C2079012894
:1021A0001FD1757800F018FB7169401AE90720D13A
:1021B000192802D87079012839D13078002839D00F
:1021C0000020707101F0E0F9344638343546183596
:1021D00020462946FFF7D6FE20462946FFF7B0FEE7
:1021E00021E00020B07160782178A278FFF7FCFD33
:1021F00070BD7D21C900884202D87079012826D19E
:102200003078002826D000207071A179032902D2ED
:10221000C9002C48C840A071FFF792FD6078217872
:10222000A278FFF7E1FD00F0D7FA706170BD307859
:102230000028DDD1002420462146224602F018FD68
:10224000B460F460346134717480B47170BD3078FE
:102250000028CDD160782178A278FFF7C5FD002055
:10226000B060F060306130717080B07170BDC04698
:1022700074000020D80000206F6E00006F666600BA
:1022800025730000000000207475726E20646F7763
:102290006E0000007475726E207570004C61796973
:1022A0006E670000524742007377697463682025A7
:1022B0007300000073776974636820595047000009
:1022C000050304010102050083B078B5054605A8A1
:1022D0000EC0104C402620463146FEF733F805ABC1
:1022E0000093204631462A46FDF7D0FF2046FDF7F1
:1022F000E9FF01060AD0C1B20A2262540021CB4391
:10230000401CC2B20448214601F026F878BC01BC4A
:1023100003B00047500100207402002010B5144C97
:102320002078C10722D0FE210840207021796288E0
:1023300010A0FFF7C9FF2079401E042816D8C04618
:1023400078440079400087440205080B0E00AC4831
:102350000C210AE0AA480B2107E0A9480A2104E061
:10236000A748082101E0A6480921017010BDC04618
:10237000A80100204472765F53455249414C5F509A
:10238000726F632072782030782578206C656E201B
:102390003D2025640000000080B5402000F032F9A7
:1023A00080BDEFF3108072B6FEE710B52121425CCC
:1023B00001462031022A10D1026813680E24A3437B
:1023C000136013680124A3431360C26B006C23469F
:1023D000834053604C70002002E00422826301209D
:1023E00000220A7010BDB0B52121415C022917D12D
:1023F00001462031026813680E24A343136013685A
:102400000125AB431360C26B036C2C469C405460A7
:1024100000240C704D70416B002904D0884702E005
:102420000421816301242046B0BD806B7047F8B55C
:10243000C16B046C00910D680268166873070FD5B4
:1024400004210F46A7403B462B4009D013689B064A
:1024500002D413688B43136000994F60C16A2BE06C
:1024600003462033B10713D50227A7403946294038
:102470000ED01168890605D411680A24A1431160A1
:10248000012159700021197000994F60816A13E091
:10249000310714D50821A140294010D011680E251C
:1024A000A943116001210A46A240009C6260816339
:1024B00000221A705970016B002900D08847F8BDBE
:1024C000F0B585B000282DD00446064620360220FF
:1024D0007070A2CC236860680190A0680290E068E8
:1024E0000390206904900868104A02402A433A4346
:1024F0001A43019802430298024303980243049846
:1025000002430A600025E5620948206335700948E6
:102510000C3C08181421FDF717FF800020640120EF
:10252000707000E00125284605B0F0BD0FC0FFFF28
:1025300000000240F8FFFDBFF8B505462020285CEA
:102540000224012826D0284620300126067047782C
:10255000012F12D1022444700024AC63286807685C
:10256000B74307602846FFF71FFD28680168EA6A3D
:10257000002A05D00E22114308E00021017009E075
:102580000A2211430160016804229143016001683D
:10259000314301602046F8BDB0B5044600F01CF997
:1025A0000546601C02D0A9480078041900F014F90F
:1025B000401BA042FAD3B0BD70B5402808D1092015
:1025C000C50640242846214600F0F2F8002800D035
:1025D00070BD00F001F9094E3168401AC92809D3CD
:1025E00007480A2101700221284600F0E6F800F0B1
:1025F000F3F830600848046070BDC046A4010020B4
:102600007400002080B504490A68024202D00860C4
:10261000FFF7D2FF80BDC04614040140F0B588B07A
:1026200007465E48874201D0052000E00320009065
:1026300000220692144605970E683046E04000D10D
:10264000AAE001250295A5402E4000D19EE0049409
:1026500003924A68032314461C40601E01281AD8BE
:1026600003230192069A9340B8689843CF68974035
:102670000743059887600198C006C00F049A9040F0
:10268000059F7F68AF43074305984760059FD84380
:102690005500019A08E01846069DA840C043032C47
:1026A00002D1069D1C461CE0FB6803408F68AF40CA
:1026B0001F43059BDF60059F022C12D11C22039B48
:1026C0001A400F239340049CE408A4003C19276A95
:1026D0009F430B6993403B43059F23624A68032451
:1026E0001440AC403B68034023433B609003800FA1
:1026F000039A049C4AD0604B1868029D28431860D6
:1027000018682840079023460C2414400F20A0404E
:1027100003229343079A234D5A5982435B19092098
:10272000C006874208D02048874207D01F4887420A
:10273000009804D1022002E0002000E00298A040AE
:1027400010431860164800684B68DA0301D530431F
:1027500000E0B043049C124A106050689A0301D50F
:10276000304300E0B0430E4A50609068DA0201D571
:10277000304300E0B0430A4A9060D0689A0201D525
:10278000304300E0B043039A054BD860121D069811
:10279000801C0690641C4FE708B0F0BD000C004898
:1027A00000040140080001400004004800080048FF
:1027B00000690840411E8841704742690B469343B7
:1027C0000A401104C91881617047002A01D01822FB
:1027D00000E0282281507047054800687047C046D5
:1027E0001A48007802490A68101808607047C04605
:1027F0000803002080B56848016810220A4302607F
:10280000032000F005F800F023F8002080BDC0464A
:1028100070B504467D20C0000C4E3178FDF794FD64
:10282000014665480068FDF78FFD00F0EFFA0125CD
:10283000032C08D8002806D10025E84321462A4663
:1028400000F028F87460284670BDC046680000207B
:1028500082B00948016801221143016001681140FA
:1028600001910199110742680A434260406808409B
:102870000090009802B0704718100240002805D45C
:102880001F21084001218140014801607047C04676
:1028900000E100E080B502F011F980BDF8B5002834
:1028A0004ED004463C4B1A68012002408A4208D2AE
:1028B0001A680126B2430A431A601A6832408A42F3
:1028C00067D1009121688A070ED54A0705D50722EE
:1028D0001202494D2B6813432B60474D2A68F023A1
:1028E0009A43A36813432B60C9072BD12A4A106867
:1028F000012630400099884207D91068B043084348
:10290000106010683040884243D12078400707D5D6
:1029100007200002384A11688143E06808431060CC
:1029200000F04EF8344909680906090F1C4A515C49
:10293000C840214908600320FFF76AFF002628E00D
:10294000012626E061682C4A121F012902D1126873
:10295000920305E01268022901D1920100E092077A
:10296000064616D5244A10680326B0430843106073
:10297000FFF732FF0746094D1F4800680C21014050
:10298000606880008142B1D0FFF726FFC01BA842DB
:10299000F2D93046F8BDC04600200240881300003E
:1029A0005C50000804480068134909684905490F4C
:1029B000024A515CC8407047700000206C5000080B
:1029C00010B50D490A680C2313400C48082B08D198
:1029D00093021B0F0AA4E45C896AD20303D4104853
:1029E00007E0044606E00F22114009A2515CFDF702
:1029F000ABFC4443204610BD0410024000127A0094
:102A000002030405060708090A0B0C0D0E0F10102F
:102A10000102030405060708090A0B0C0D0E0F102E
:102A200000093D00F0B587B007460120002F00D116
:102A3000C2E104903878C007F14E059711D0716853
:102A40000C200140042906D071680140082937D1C3
:102A50007068C00334D53068800302D578680028D8
:102A600038D0387880074ED570680007800F1BD0AB
:102A700070680C210140082902D17068C00313D589
:102A80003068059CE168002926D0012108433060A8
:102A9000FFF7A2FE0546306880072DD4FFF79CFEA5
:102AA000401B0228F7D986E130688007059A02D5D5
:102AB000D06801280ED13068F821884311691FE0E1
:102AC0007968002900D1C1E0012900D0D7E00120B8
:102AD0000104DDE004986FE1012188433060FFF7D5
:102AE0007BFE0546306880070DD5FFF775FE411B5C
:102AF00003200229F6D95FE13068F8218843216973
:102B0000C90001433160059C2078000720D420785B
:102B1000400730D42078C00600D4C4E0059A51693B
:102B2000012971D1706B042101437163706B012124
:102B300001437163FFF750FE0546706B800700D5B7
:102B4000A9E0FFF749FE411B03200229F5D933E133
:102B5000706AE169002918D0012108437062FFF70B
:102B60003BFE0546706A8007D1D4FFF735FE401B57
:102B70000228F7D91FE101221107F069C000019175
:102B8000039211D50020029016E001218843706263
:102B9000FFF722FE0546706A8007B8D5FFF71CFED6
:102BA000401B0228F7D906E1F0690843F061F0699B
:102BB0000840069006980292924F3868C00511D5D9
:102BC00005988168904F00292AD00129039A06D0E0
:102BD000306A052900D0BCE0042108433062306A25
:102BE0001043BBE003980402386820433860FFF7C5
:102BF000F3FD054638682042E2D1FFF7EDFD411BA9
:102C000003206429F6D9D7E0706B491D00D08CE011
:102C1000042188437063706BF821884391693FE019
:102C2000306A039988433062306A042188433062F5
:102C3000FFF7D2FD0546306A800700D49BE0FFF71E
:102C4000CBFD411B0320B942F5D9B5E001200104B9
:102C500032688A433260810432688A4332604404B5
:102C6000FFF7BAFD0546059F3068204200D1F8E61F
:102C7000FFF7B2FD411B03206429F5D99CE03068C1
:102C8000052900D081E001218A0410433060090445
:102C90003068084380E0706BF821884305998969A2
:102CA000C900014371630598046A002C1AD070684A
:102CB0000C210140082917D1012C04987CD0012057
:102CC000030471680B40F26A059D6C6AA34273D1DC
:102CD0000F231A40EC6AA2426ED19A041140AA6AEC
:102CE000914269D1002067E0012002063168049218
:102CF000914331604706FFF76FFD0546022C0AD16C
:102D0000049C3068384259D0FFF766FD411B032010
:102D10000229F6D950E030683842E3D0FFF75CFD75
:102D2000411B03200229F6D946E0042108437063C1
:102D3000706B012188437063FFF74EFD0546706B91
:102D40008007B0D5FFF748FD411B03200229F6D9C3
:102D500032E090433062306A042188433062FFF7EA
:102D60003BFD0546306A800705D4FFF735FD401B63
:102D7000B842F7D91FE002980028059C00D1C9E6A7
:102D8000F06901998843F061C4E601210A04904387
:102D90003060890430688843306001204404FFF7C4
:102DA0001BFD05463068204200D05AE6FFF714FDAF
:102DB000401B6428F6D9032007B0F0BDF06A0F214C
:102DC0008843059AD16A0143F1623D20000471688D
:102DD0008143906A0843516A01437160306820431F
:102DE0003060FFF7F9FC04463068384200D079E7DC
:102DF000FFF7F2FC011B03200229F5D9DCE7C046EE
:102E0000001002400070004088130000401E010EB8
:102E100001D0012070470749074A506007480368FE
:102E20000B40032189075918016000209060072199
:102E300011607047FFFFFF0010E000E020ED00E0B0
:102E40007047F8B50446826FC76F006881688026B6
:102E5000212A1CD131401AD0EFF31080012181F3D7
:102E6000108821688A68B2438A6080F31088E06E17
:102E7000002808D0FFF799FA002804D0E06EFFF789
:102E8000D4FA202821D0204601F09CFC20688168DB
:102E90000025222F20D1402001401DD0EFF31081CA
:102EA000012282F31088226893688343936081F340
:102EB0001088206F00280CD0FFF777FA002808D080
:102EC000206FFFF7B2FA202803D11020A05103256C
:102ED00002E0204601F04AFC2846F8BD7047000099
:102EE000F0B587B004460168CB6908682025024622
:102EF00004952A4001250695EF023E462F361E40D6
:102F00008D68202E08D1002A06D0616E002901D0DC
:102F10002046884707B0F0BD2646583605963E46FF
:102F20000F3633420AD0069E35406E426E410394FE
:102F30009C4C2042039C58D1002E56D01840C2060B
:102F4000226E39D5012A37D110220A6288684006DC
:102F500000D5CCE0059B588819885B88002BD9D018
:102F60000E1A3104D6D0EFF31081069F87F3108834
:102F700009235B012046246825689D43256081F371
:102F80001088EFF3108187F3108803689C68BC43B6
:102F90009C6081F310880499C16700214166016635
:102FA000EFF3108187F3108803681C6894431C605A
:102FB00081F31088B1B2E5E0010600D5E5E04006F6
:102FC000A8D5EFF31080069981F3108821680A686C
:102FD00040239A430A6080F310880020A06604987A
:102FE000A067204600F036FA94E70296DC070DD081
:102FF000069C2402044009D0069C0C62059CA46A2D
:103000003E46069F3C433746059EB46202261C4658
:103010000196344066426641029C264309D1019CD8
:103020000C62059CA46A00940426009C2643059C1F
:10303000A66204261C460096344066426641029C05
:103040002643059E06D1009C0C62B46A019E34435F
:10305000059EB46215436A1E95411A0706D5002DD8
:1030600004D008220A62B46A1443B4623B4208D016
:10307000069A9206024004D00F62B26A049C224370
:10308000B262B26A002A039C00D143E7184080066E
:1030900005D5626E002A02D0204690472168B06AAA
:1030A00028220240886840252840801800D172E01C
:1030B000204601F05BFB20688068400667D5EFF38F
:1030C0001080069981F3108821688A68AA438A6073
:1030D00080F31088206F002859D033494163FFF7EF
:1030E00082F9002800D115E7206F416B11E7216FAD
:1030F000086843689DB2002D059E00D10AE730881C
:10310000854200D306E773808969202936D0EFF322
:103110001080069E86F310882449203123682546B6
:103120001C680C401C6080F31088EFF3108086F35D
:10313000108829688B68B3438B6080F31088EFF3A5
:10314000108086F3108829688B684024A3432C469E
:103150008B6080F310880498E86700202866EFF3FE
:10316000108086F31088059E29680B6893430B60D6
:1031700080F31088286FFFF718F930887188401A9B
:1031800081B22046FFF75CFEC4E6A16EBEE6204693
:10319000FFF7A4FEBEE62046FFF7A0FE0020B062C7
:1031A000B8E6C0462001000461460008DFFEFFFFCC
:1031B000B0B500282DD00446806F002805D17420BA
:1031C00000212154204600F027F82420A067206821
:1031D00001680125A9430160204601F003FB012895
:1031E00018D0606A002802D0204601F0A9F9012019
:1031F000C102226853688B43536091680823994346
:103200009160116801431160204601F0F5F905460F
:1032100000E001252846B0BDF0B587B0044602A8FD
:103220001421FDF78FF820682A4988424FD10120E8
:103230004104294A93680B43936093680B400193C0
:10324000019B13680B43136012680A4001920690B9
:10325000032105910490022003900C200290019814
:103260000920C00602A9FFF7D9F91C4D00268027C6
:103270001B48143041C52E606F60AE60EE602E6159
:103280006E61083D2846FFF71BF9002801D0FFF7C3
:1032900088F86C622567134D102011492960291D9B
:1032A000C1C12E616E61AE61EE612846FFF708F97B
:1032B000002801D0FFF775F86C62E5661C24002138
:1032C00020460A46FFF7E6FA2046FFF7D7FA07B08E
:1032D000F0BDC0460044004014100240EC01002044
:1032E000440002403002002070B5C36F0225202B3D
:1032F0002BD10123002929D0002A27D00124230320
:1033000086689E4204D10369002B01D1CB071FD1EF
:103310007423C35C012B2B4618D00346743300255D
:1033200005661C7003685B681B020AD5EFF3108307
:1033300084F31088A40605682E6826432E6083F364
:10334000108801F0DDFA034600E02B46184670BDF8
:103350002346FBE770477047F0B587B006930E46EB
:103360000746816F0220202935D10125002E33D058
:10337000002A31D001210C03BB68A34204D13B6970
:10338000002B01D1F3075DD104943C4674342378BB
:10339000012B054620D020463C46503400230293A2
:1033A000C360039001702120B8671546FFF714FA37
:1033B000059065802580B868049988420FD1029AEB
:1033C00038690028049601D0002104910028114694
:1033D00007D1064605E00546284607B0F0BD02992C
:1033E000049103980170608800281ED00698009010
:1033F0008021002538462A46059B01F0CFFA002897
:103400001ED1002E04D0307839680885761C08E07B
:10341000049A10880E49084039680885921C049265
:103420002E466088401E6080DDE7069800904021AF
:10343000002538462A46059B01F0B0FA002803D043
:103440000325C9E70D46C7E72020B867C4E7C04693
:10345000FF0100007047FEE780B5012001024848E7
:103460000022FFF7B2F980BD80B501221102444865
:10347000FFF7ABF980BDC04680B50120410240484E
:103480000022FFF7A2F980BD80B5012251023C481D
:10349000FFF79BF980BDC046FEE77047B0B5FFF768
:1034A000E3FF00F053F8FFF7EFFFFFF7E5FF81259B
:1034B0000024072C0DD8FFF7CFFF2D0602D4FFF70D
:1034C000DBFF01E0FFF7E0FFED0DFFF7CDFF641C30
:1034D000EFE7FFF7D9FF00F029F8FFF7BDFFFFF78F
:1034E000C3FF00F045F8002801D0002419E00E4C7D
:1034F0000025FFF7B1FFFFF7B7FF0F2D07D800F04A
:1035000037F8411E884161000C186D1CF1E7FFF788
:10351000A3FF00F01BF8FFF7AFFFFFF7A5FFFFF7D2
:10352000B3FF2046B0BDC046FFFF000080B50F4985
:103530000320002201235B020B604A608A60C8609E
:103540000A610F48FFF76AF880BDC04610B5074909
:103550000320002201235C020C604B608A60C8607B
:103560000A610748FFF75AF810BDC04690010020D5
:1035700080B5012041020248FFF71AF980BDC0461C
:103580000004004870470000FCB53F20C0431B4AC0
:103590005179002911D000215171194A5832194B23
:1035A00080292AD014185D582E0A2027E6552C0CA5
:1035B00014541570521C091DF2E7582410490A5D75
:1035C000009238268A5D019221300D7E00280CD0B1
:1035D0000F18BA5D3723FA543A5D5723FA5478220C
:1035E000BA5C7723FA54401CF0E77720009A0A541B
:1035F0005720019A0A5437200D54FCBD00000020CA
:10360000D80000207450000870B50123DB050025A8
:10361000614C082D00D346E08026266000BF00BF25
:1036200000BF00BF00BF00BF00BF00BF00BF00BFA2
:1036300046B2002E19D4236000BF00BF00BF00BFF8
:1036400000BF00BF00BF00BF00BF00BF00BF00BF82
:1036500000BF00BF00BF00BF00BF00BF00BF00BF72
:1036600000BF00BF00BF00BF1AE000BF00BF00BF27
:1036700000BF00BF00BF00BF00BF00BF00BF00BF52
:1036800000BF00BF00BF00BF00BF00BF00BF00BF42
:1036900000BF00BF00BF00BF00BF00BF00BF23606E
:1036A0006D1C4000B5E70020082800D346E08025C7
:1036B000256000BF00BF00BF00BF00BF00BF00BF4C
:1036C00000BF00BF00BF4DB2002D19D4236000BF62
:1036D00000BF00BF00BF00BF00BF00BF00BF00BFF2
:1036E00000BF00BF00BF00BF00BF00BF00BF00BFE2
:1036F00000BF00BF00BF00BF00BF00BF00BF1AE097
:1037000000BF00BF00BF00BF00BF00BF00BF00BFC1
:1037100000BF00BF00BF00BF00BF00BF00BF00BFB1
:1037200000BF00BF00BF00BF00BF00BF00BF00BFA1
:1037300000BF00BF2360401C4900B5E700200728F8
:1037400000D949E08021216000BF00BF00BF00BF59
:1037500000BF00BF00BF00BF00BF00BF51B20029C3
:103760001CD4236000BF00BF00BF00BF00BF00BF6C
:1037700000BF00BF00BF00BF00BF00BF00BF00BF51
:1037800000BF00BF00BF00BF00BF00BF00BF00BF41
:1037900000BF00BF1DE0C0461800004800BF00BFCA
:1037A00000BF00BF00BF00BF00BF00BF00BF00BF21
:1037B00000BF00BF00BF00BF00BF00BF00BF00BF11
:1037C00000BF00BF00BF00BF00BF00BF00BF00BF01
:1037D0002360401C5200B2E770BD0000F0B5012329
:1037E0001C0400265F4D082E00D345E02B6000BF6F
:1037F00000BF00BF00BF00BF00BF00BF00BF00BFD1
:1038000000BF47B2002F19D42C6000BF00BF00BF1B
:1038100000BF00BF00BF00BF00BF00BF00BF00BFB0
:1038200000BF00BF00BF00BF00BF00BF00BF00BFA0
:1038300000BF00BF00BF00BF00BF1AE000BF00BF55
:1038400000BF00BF00BF00BF00BF00BF00BF00BF80
:1038500000BF00BF00BF00BF00BF00BF00BF00BF70
:1038600000BF00BF00BF00BF00BF00BF00BF00BF60
:103870002C60761C4000B6E70020082800D345E005
:103880002B6000BF00BF00BF00BF00BF00BF00BF74
:1038900000BF00BF00BF4EB2002E19D42C6000BF85
:1038A00000BF00BF00BF00BF00BF00BF00BF00BF20
:1038B00000BF00BF00BF00BF00BF00BF00BF00BF10
:1038C00000BF00BF00BF00BF00BF00BF00BF1AE0C5
:1038D00000BF00BF00BF00BF00BF00BF00BF00BFF0
:1038E00000BF00BF00BF00BF00BF00BF00BF00BFE0
:1038F00000BF00BF00BF00BF00BF00BF00BF00BFD0
:1039000000BF00BF2C60401C4900B6E7002007281C
:1039100000D947E02B6000BF00BF00BF00BF00BF61
:1039200000BF00BF00BF00BF00BF51B200291BD4C1
:103930002C6000BF00BF00BF00BF00BF00BF00BFC2
:1039400000BF00BF00BF00BF00BF00BF00BF00BF7F
:1039500000BF00BF00BF00BF00BF00BF00BF00BF6F
:1039600000BF1CE01804004800BF00BF00BF00BF3C
:1039700000BF00BF00BF00BF00BF00BF00BF00BF4F
:1039800000BF00BF00BF00BF00BF00BF00BF00BF3F
:1039900000BF00BF00BF00BF00BF00BF2C60401CC5
:1039A0005200B4E7F0BD000070B501235B040025B0
:1039B000614C082D00D346E00226266000BF00BF00
:1039C00000BF00BF00BF00BF00BF00BF00BF00BFFF
:1039D00046B2002E19D4236000BF00BF00BF00BF55
:1039E00000BF00BF00BF00BF00BF00BF00BF00BFDF
:1039F00000BF00BF00BF00BF00BF00BF00BF00BFCF
:103A000000BF00BF00BF00BF1AE000BF00BF00BF83
:103A100000BF00BF00BF00BF00BF00BF00BF00BFAE
:103A200000BF00BF00BF00BF00BF00BF00BF00BF9E
:103A300000BF00BF00BF00BF00BF00BF00BF2360CA
:103A40006D1C4000B5E70020082800D346E00225A1
:103A5000256000BF00BF00BF00BF00BF00BF00BFA8
:103A600000BF00BF00BF4DB2002D19D4236000BFBE
:103A700000BF00BF00BF00BF00BF00BF00BF00BF4E
:103A800000BF00BF00BF00BF00BF00BF00BF00BF3E
:103A900000BF00BF00BF00BF00BF00BF00BF1AE0F3
:103AA00000BF00BF00BF00BF00BF00BF00BF00BF1E
:103AB00000BF00BF00BF00BF00BF00BF00BF00BF0E
:103AC00000BF00BF00BF00BF00BF00BF00BF00BFFE
:103AD00000BF00BF2360401C4900B5E70020072855
:103AE00000D949E00221216000BF00BF00BF00BF34
:103AF00000BF00BF00BF00BF00BF00BF51B2002920
:103B00001CD4236000BF00BF00BF00BF00BF00BFC8
:103B100000BF00BF00BF00BF00BF00BF00BF00BFAD
:103B200000BF00BF00BF00BF00BF00BF00BF00BF9D
:103B300000BF00BF1DE0C0461804004800BF00BF22
:103B400000BF00BF00BF00BF00BF00BF00BF00BF7D
:103B500000BF00BF00BF00BF00BF00BF00BF00BF6D
:103B600000BF00BF00BF00BF00BF00BF00BF00BF5D
:103B70002360401C5200B2E770BD0000F0B5012484
:103B8000A303A4070026604D082E00D345E02B6058
:103B900000BF00BF00BF00BF00BF00BF00BF00BF2D
:103BA00000BF00BF47B2002F19D42C6000BF00BF78
:103BB00000BF00BF00BF00BF00BF00BF00BF00BF0D
:103BC00000BF00BF00BF00BF00BF00BF00BF00BFFD
:103BD00000BF00BF00BF00BF00BF00BF1AE000BFB2
:103BE00000BF00BF00BF00BF00BF00BF00BF00BFDD
:103BF00000BF00BF00BF00BF00BF00BF00BF00BFCD
:103C000000BF00BF00BF00BF00BF00BF00BF00BFBC
:103C100000BF2C60761C4000B6E70020082800D3C7
:103C200045E02B6000BF00BF00BF00BF00BF00BF6A
:103C300000BF00BF00BF00BF4EB2002E19D42C60E1
:103C400000BF00BF00BF00BF00BF00BF00BF00BF7C
:103C500000BF00BF00BF00BF00BF00BF00BF00BF6C
:103C600000BF00BF00BF00BF00BF00BF00BF00BF5C
:103C70001AE000BF00BF00BF00BF00BF00BF00BF11
:103C800000BF00BF00BF00BF00BF00BF00BF00BF3C
:103C900000BF00BF00BF00BF00BF00BF00BF00BF2C
:103CA00000BF00BF00BF2C60401C4900B6E70020E9
:103CB000072800D948E02B6000BF00BF00BF00BF4D
:103CC00000BF00BF00BF00BF00BF00BF51B200294E
:103CD0001CD42C6000BF00BF00BF00BF00BF00BFEE
:103CE00000BF00BF00BF00BF00BF00BF00BF00BFDC
:103CF00000BF00BF00BF00BF00BF00BF00BF00BFCC
:103D000000BF00BF1DE0C0461804004800BF00BF50
:103D100000BF00BF00BF00BF00BF00BF00BF00BFAB
:103D200000BF00BF00BF00BF00BF00BF00BF00BF9B
:103D300000BF00BF00BF00BF00BF00BF00BF00BF8B
:103D40002C60401C5200B3E7F0BD0000F0B5012428
:103D5000230224060026604D082E00D345E02B6088
:103D600000BF00BF00BF00BF00BF00BF00BF00BF5B
:103D700000BF00BF47B2002F19D42C6000BF00BFA6
:103D800000BF00BF00BF00BF00BF00BF00BF00BF3B
:103D900000BF00BF00BF00BF00BF00BF00BF00BF2B
:103DA00000BF00BF00BF00BF00BF00BF1AE000BFE0
:103DB00000BF00BF00BF00BF00BF00BF00BF00BF0B
:103DC00000BF00BF00BF00BF00BF00BF00BF00BFFB
:103DD00000BF00BF00BF00BF00BF00BF00BF00BFEB
:103DE00000BF2C60761C4000B6E70020082800D3F6
:103DF00045E02B6000BF00BF00BF00BF00BF00BF99
:103E000000BF00BF00BF00BF4EB2002E19D42C600F
:103E100000BF00BF00BF00BF00BF00BF00BF00BFAA
:103E200000BF00BF00BF00BF00BF00BF00BF00BF9A
:103E300000BF00BF00BF00BF00BF00BF00BF00BF8A
:103E40001AE000BF00BF00BF00BF00BF00BF00BF3F
:103E500000BF00BF00BF00BF00BF00BF00BF00BF6A
:103E600000BF00BF00BF00BF00BF00BF00BF00BF5A
:103E700000BF00BF00BF2C60401C4900B6E7002017
:103E8000072800D948E02B6000BF00BF00BF00BF7B
:103E900000BF00BF00BF00BF00BF00BF51B200297C
:103EA0001CD42C6000BF00BF00BF00BF00BF00BF1C
:103EB00000BF00BF00BF00BF00BF00BF00BF00BF0A
:103EC00000BF00BF00BF00BF00BF00BF00BF00BFFA
:103ED00000BF00BF1DE0C0461800004800BF00BF83
:103EE00000BF00BF00BF00BF00BF00BF00BF00BFDA
:103EF00000BF00BF00BF00BF00BF00BF00BF00BFCA
:103F000000BF00BF00BF00BF00BF00BF00BF00BFB9
:103F10002C60401C5200B3E7F0BD0000F0B5012456
:103F2000E302E4060026604D082E00D345E02B6036
:103F300000BF00BF00BF00BF00BF00BF00BF00BF89
:103F400000BF00BF47B2002F19D42C6000BF00BFD4
:103F500000BF00BF00BF00BF00BF00BF00BF00BF69
:103F600000BF00BF00BF00BF00BF00BF00BF00BF59
:103F700000BF00BF00BF00BF00BF00BF1AE000BF0E
:103F800000BF00BF00BF00BF00BF00BF00BF00BF39
:103F900000BF00BF00BF00BF00BF00BF00BF00BF29
:103FA00000BF00BF00BF00BF00BF00BF00BF00BF19
:103FB00000BF2C60761C4000B6E70020082800D324
:103FC00045E02B6000BF00BF00BF00BF00BF00BFC7
:103FD00000BF00BF00BF00BF4EB2002E19D42C603E
:103FE00000BF00BF00BF00BF00BF00BF00BF00BFD9
:103FF00000BF00BF00BF00BF00BF00BF00BF00BFC9
:1040000000BF00BF00BF00BF00BF00BF00BF00BFB8
:104010001AE000BF00BF00BF00BF00BF00BF00BF6D
:1040200000BF00BF00BF00BF00BF00BF00BF00BF98
:1040300000BF00BF00BF00BF00BF00BF00BF00BF88
:1040400000BF00BF00BF2C60401C4900B6E7002045
:10405000072800D948E02B6000BF00BF00BF00BFA9
:1040600000BF00BF00BF00BF00BF00BF51B20029AA
:104070001CD42C6000BF00BF00BF00BF00BF00BF4A
:1040800000BF00BF00BF00BF00BF00BF00BF00BF38
:1040900000BF00BF00BF00BF00BF00BF00BF00BF28
:1040A00000BF00BF1DE0C0461800004800BF00BFB1
:1040B00000BF00BF00BF00BF00BF00BF00BF00BF08
:1040C00000BF00BF00BF00BF00BF00BF00BF00BFF8
:1040D00000BF00BF00BF00BF00BF00BF00BF00BFE8
:1040E0002C60401C5200B3E7F0BD000070B5012306
:1040F0001B050025614C082D00D346E010262660E4
:1041000000BF00BF00BF00BF00BF00BF00BF00BFB7
:1041100000BF00BF46B2002E19D4236000BF00BF0D
:1041200000BF00BF00BF00BF00BF00BF00BF00BF97
:1041300000BF00BF00BF00BF00BF00BF00BF00BF87
:1041400000BF00BF00BF00BF00BF00BF1AE000BF3C
:1041500000BF00BF00BF00BF00BF00BF00BF00BF67
:1041600000BF00BF00BF00BF00BF00BF00BF00BF57
:1041700000BF00BF00BF00BF00BF00BF00BF00BF47
:1041800000BF23606D1C4000B5E70020082800D365
:1041900046E01025256000BF00BF00BF00BF00BF84
:1041A00000BF00BF00BF00BF00BF4DB2002D19D43B
:1041B000236000BF00BF00BF00BF00BF00BF00BF43
:1041C00000BF00BF00BF00BF00BF00BF00BF00BFF7
:1041D00000BF00BF00BF00BF00BF00BF00BF00BFE7
:1041E00000BF1AE000BF00BF00BF00BF00BF00BF9C
:1041F00000BF00BF00BF00BF00BF00BF00BF00BFC7
:1042000000BF00BF00BF00BF00BF00BF00BF00BFB6
:1042100000BF00BF00BF00BF2360401C4900B5E7DE
:104220000020072800D949E01021216000BF00BF0D
:1042300000BF00BF00BF00BF00BF00BF00BF00BF86
:1042400051B200291CD4236000BF00BF00BF00BFD3
:1042500000BF00BF00BF00BF00BF00BF00BF00BF66
:1042600000BF00BF00BF00BF00BF00BF00BF00BF56
:1042700000BF00BF00BF00BF1DE0C04618040048DB
:1042800000BF00BF00BF00BF00BF00BF00BF00BF36
:1042900000BF00BF00BF00BF00BF00BF00BF00BF26
:1042A00000BF00BF00BF00BF00BF00BF00BF00BF16
:1042B00000BF00BF2360401C5200B2E770BDF8B5DC
:1042C00014460D460646EFF3108072B600271A2FEB
:1042D00006D8304629462246FFF780FA7F1CF6E7CB
:1042E00062B6F8BDF8B514460D460646EFF31080E9
:1042F00072B600271B2F06D0E25DE95DF05DFFF787
:104300006DFA7F1CF6E762B6F8BDF8B514460D46A7
:104310000646EFF3108072B60027192F06D83046F4
:1043200029462246FFF740FB7F1CF6E762B6F8BD40
:10433000F8B514460D460646EFF3108072B6002716
:104340001A2F06D0E25DE95DF05DFFF72DFB7F1CC3
:10435000F6E762B6F8BDF8B514460D460646EFF32B
:10436000108072B60027192F06D8304629462246FB
:10437000FFF704FC7F1CF6E762B6F8BDF8B51446FB
:104380000D460646EFF3108072B600271A2F06D0AE
:10439000E25DE95DF05DFFF7F1FB7F1CF6E762B6D9
:1043A000F8BDF8B514460D460646EFF3108072B618
:1043B0000027192F06D8304629462246FFF7C6FCAB
:1043C0007F1CF6E762B6F8BDF8B514460D46064602
:1043D000EFF3108072B600271A2F06D0E25DE95D78
:1043E000F05DFFF7B3FC7F1CF6E762B6F8BDF8B5E9
:1043F00014460D460646EFF3108072B60027192FBB
:1044000006D8304629462246FFF788FD7F1CF6E78E
:1044100062B6F8BDF8B514460D460646EFF31080B7
:1044200072B600271A2F06D0E25DE95DF05DFFF756
:1044300075FD7F1CF6E762B6F8BDF8B514460D466B
:104440000646EFF3108072B60027182F06D83046C4
:1044500029462246FFF74AFE7F1CF6E762B6F8BD02
:10446000F8B514460D460646EFF3108072B60027E5
:10447000192F06D0E25DE95DF05DFFF737FE7F1C86
:10448000F6E762B6F8BDF8B514460D460646EFF3FA
:10449000108072B60027172F06D8204629463246CC
:1044A000FFF7B2F87F1CF6E762B6F8BDF8B5144620
:1044B0000D460646EFF3108072B60027182F06D07F
:1044C000E25DE95DF05DFFF79FF87F1CF6E762B6FD
:1044D000F8BD80B5FEF784F980BD70B590B004AC2E
:1044E000201D1C21FBF72EFF00250F950520C00481
:1044F0000E900D9502260C96102008900120079032
:10450000049603950295019500952046FEF78AFAD8
:10451000002803D0EFF3108072B6FEE703950295F2
:1045200001960720009068460121FEF7B7F90028A0
:1045300003D0EFF3108072B6FEE710B070BD704785
:10454000B0B5416ACA0707D00122520403685C680B
:104550009443826A22435A608A0707D501221204D3
:1045600003685C689443C26A22435A604A0707D5CD
:104570000122920403685C689443026B22435A60F0
:104580000A0707D50122D20303685C689443426B93
:1045900022435A60CA0607D50122120303689C68A9
:1045A0009443826B22439A608A0607D50122520304
:1045B00003689C689443C26B22439A604A0610D5F4
:1045C00001221305026854689C43056C2C43546017
:1045D0009D4206D103235B0554689C43436C2343EF
:1045E0005360090607D50121C904026853688B434B
:1045F000806C18435060B0BD7CB505468020002417
:104600002C50FEF7E9F806462868016809070BD523
:10461000124800900120410500222846334600F050
:10462000BDF900280ED12868006840070CD50B485A
:1046300000900120810500222846334600F0AEF9A3
:10464000002801D0032406E0284674302021A96701
:10465000E96704702C6620467CBDC046FFFFFF0161
:1046600080B5406A0146523100220A8152214252ED
:10467000FEF734FC80BDF8B5446AA26FE66F20688F
:10468000816825465235212A08D18022114005D063
:1046900000202880204600F095F8206827468037C3
:1046A0008068222E07D14021084004D000202881B4
:1046B000204600F05BF8386810210143396020463D
:1046C000FEF70CFCF8BD70B50146406A0246583250
:1046D0008969202932D000215180EFF31083012114
:1046E00081F310880C0205682E68A6432E6083F3C0
:1046F0001088EFF3108381F310880468A5688D4358
:10470000A56083F31088EFF3108381F310880468A9
:10471000A5684026B543A56083F310882023C367AE
:10472000036E012B0AD1EFF3108381F31088016827
:104730000C681025AC430C6083F31088016E0129CE
:1047400003D11188FEF77CFB70BDFEF703FE70BD40
:1047500080B5406A016E012905D15821415A4908A6
:10476000FEF76EFB80BDFEF7F6FD80BDB0B5EFF342
:104770001082012181F3108809235B0104682568F8
:104780009D43256082F31088EFF3108281F3108837
:1047900003689C688C439C6082F31088026E012A37
:1047A0000AD1EFF3108281F3108801680B6810249E
:1047B000A3430B6082F310882021C167002141666A
:1047C0000166B0BD10B5EFF31081012282F31088AD
:1047D00002681368C024A343136081F3108820216A
:1047E000816710BDB0B50446006801683A4A0A40C6
:1047F000A16823690B4365691D43E1690D431543B6
:1048000005600322120343689343E2681A4342603F
:10481000A269236A13430B221202856895431D4344
:1048200085602E4A904209D02D4A904208D12D48E9
:1048300000688007000F2CA2135802E0002300E05C
:1048400010230125EA032C4891420DD1082B3DD8B5
:104850007B441B795B009F4404391B391539393976
:104860001A00FEF79FF80FE0082B2FD87B441B7926
:104870005B009F44042B202B1A2B2B2B1F00FEF7D1
:1048800091F814E0FEF79CF8002801D11DE01046D5
:10489000400061684A081018FBF756FD17490140AF
:1048A00014D00007400F08430DE0FEF789F80028F8
:1048B00001D10AE0104661684A081018FBF744FD70
:1048C00080B2102802D32168C860002500206066ED
:1048D000A0662846B0BDC046F369FFFF0044004013
:1048E00000380140301002400000000004000000C9
:1048F000080000000200000000127A00F0FF000033
:10490000F8B51346054658202A522E46583600243C
:10491000B46269652220E867286F002814D00A462F
:104920001C4F1D498162C7621949016344632968AC
:104930002431FDF701FE002806D01020B062347744
:104940002020E867012421E03477EFF31081012073
:1049500080F3108802022B681E6816431E6081F3E4
:104960001088EFF3108180F310882A68936803435E
:10497000936081F31088EFF3108180F3108828682A
:10498000826840231343836081F310882046F8BD7A
:104990007746000851470008C7460008FEB516468E
:1049A0000F460468014674310191089DE169394060
:1049B000C91B4A424A41B24233D1691CF6D004466F
:1049C0000293FDF709FF029B002D2CD0C01AA842CC
:1049D00029D82046246821684907E7D5E1690905F7
:1049E000E4D50121CA022262EFF3108481F310881A
:1049F0000D22520103681D6895431D6084F31088E1
:104A0000EFF3108481F31088026893688B439360FE
:104A100084F3108820218167C16701990C460C340A
:104A20001CE00020FEBDEFF31081012080F3108810
:104A30000D22520123681D6895431D6081F3108883
:104A4000EFF3108180F310882268936883439360AA
:104A500081F310882020A0677C3401990020087021
:104A6000202020600320FEBD10B57A4C204600F0C7
:104A700005F82046FEF734FA10BDC04610B50446CE
:104A80000068C169C9060BD5102101622046FEF7F6
:104A9000D8F9206F0068406821686F4A914200D0C1
:104AA00010BD4022101A6D49488008780123034345
:104AB0000B70091D2046FEF717FC10BD002805D419
:104AC0000322034693430C4A9A1806E00F22024041
:104AD000083A03239A43074BD2188007C00E890176
:104AE000C9B28140FF238340106898430843106097
:104AF0007047C0461CED00E000E400E086B0FDF722
:104B000079FEFFF7EAFCFDF7CFFA002405940127B0
:104B100078044A4A1168014311601168014000910C
:104B20000098B804116801431160116801400091B8
:104B300000980920C506424928462246FDF745FE51
:104B4000404841492246FDF740FE049403940297F1
:104B50000220019001AE3D4A284631469047039716
:104B60002120000402904020019028463146374A17
:104B700090470494039702971320C00101902846A0
:104B80003146324DA847049403970297304801906C
:104B90002C483146A84704940394029719204001F9
:104BA000019028483146A847072528462146224635
:104BB000FDF770FE2846FDF761FE2049086838437E
:104BC000086008683840019001980B252846214666
:104BD0002246FDF75FFE2846FDF750FE1D4D0C20D6
:104BE000E12149021C4A2A606960AC60EC602C61DA
:104BF0006861AC61EC612C626C622846FEF7D8FA01
:104C0000002803D0EFF3108072B6FEE71348011DB1
:104C100040222846FEF768FB2868016810220A43F4
:104C200002600FA0FDF750FBFDF7D2F9FDF74CFA3B
:104C3000FDF7E4F9FDF772FBF6E7C04614100240F9
:104C40008209000000040048334300001D260008CC
:104C5000134000007402002000440040A80100201E
:104C600053797374656D2072756E6E696E672E0070
:104C700070B514460D46064615480271C17086701F
:104C800014A0FDF721FB304629462246FFF7FBFB27
:104C9000304629462246FFF712FB30462946224677
:104CA000FFF733FB304629462246FFF754FB3046D8
:104CB00029462246FFF775FB304629462246FFF774
:104CC00096FB304629462246FFF7B7FB70BDC0462B
:104CD000D80000207377697463684F4E4F464600D2
:104CE000F8B5040C8BB2264682B25E431046584398
:104CF0000D0C370C360400218019164679416E439D
:104D0000370C36048019264679416E438919F8BD5F
:104D10004900CA020243100000D004204A0D01D00D
:104D200001221043044A490D914201D10221084356
:104D3000012800D105207047FF07000030380A28FD
:104D400001D20120704700207047000010B50029F3
:104D50000AD00878002807D005487844FCF7A4FF5B
:104D6000002801D0002010BD0248784410BD00008A
:104D7000BA030000B203000010B500290AD0087879
:104D8000002807D005487844FCF78EFF002801D0A2
:104D9000002010BD0248784410BD0000AA030000A6
:104DA000A203000070B50125ED0704004C4020D49B
:104DB000441A01D2001B0919C60D4B00F2B2FF2A9A
:104DC00029D01B0E2CD000020C0228432C43D31AEE
:104DD000DC40051910D2280A02D3401C6D0611D000
:104DE000761EF6058019FF2A00DA70BDC00DC005D9
:104DF00070BD694000F022F801200543C541521CF6
:104E0000761CE8E764089C40C90161408900E7D14D
:104E10000124A043E4E71B0E440200D0034870BD08
:104E2000002AFCD1C00FC00770BD00BF0000C07FCA
:104E300070B50125ED0704004C4022D4441A02D27B
:104E40006C40001B0919C60D4B00F2B2FF2A4BD073
:104E50001B0E50D000020C02A8432C43D31ADC4096
:104E6000051B05D5AD0019D36D08761E521E37D02F
:104E7000F605280A01D2801970BD70416D0603D075
:104E800070BD6940FFF794FF9C40090261404900F2
:104E900001D0401E70BD0124A04370BD6D081DD01F
:104EA00001202B0C01D12D0410302B0E01D12D022D
:104EB00008302B0F01D12D01001DAB0F01D1AD002A
:104EC000801CEB0F01D16D00401C361A121A6D00C8
:104ED000680AF5054019012A02DB70BD002070BD8B
:104EE000C036300AC00770BD1B0E440201D1FF2B33
:104EF00000D1024870BD002AF0D070BD0000C07F14
:104F000003B402487844844603BC60473DC0FFFFB9
:104F100003B402487844844603BC6047A5C2FFFF3F
:104F20008182838485868788898B8C8D8E8F9192F0
:104F300093959697999A9C9D9FA0A2A3A5A7A8AA8E
:104F4000ACAEB0B2B3B5B7B9BCBEC0C2C5C7C9CCB0
:104F5000CED1D4D7D9DCDFE2E6E9ECF0F3F7FAFE04
:104F600000000000000000003031323334353637A5
:104F7000383941424344454640305800303132339D
:104F8000343536373839616263646566403078009D
:104F90000400000800000000000000020001000002
:104FA00010303132333435363738396162636465F5
:104FB0006678700030313233343536373839414213
:104FC000434445465850000002400000000000A045
:104FD0000000000005400000000000C800000000C4
:104FE0000C4000000000409C000000001940000040
:104FF0000020BCBE0000000034400000BFC91B8E72
:1050000000000004B5400000504BCFD06607E2CF4F
:10501000010000006C4100003E8251AADFEEA7347F
:1050200001000000D9420000DCB5A0E23A301F9731
:10503000FFFFFFFFB4450000FD25A0C8E9A3C14F55
:10504000FFFFFFFFFF3F00000000008000000000A6
:10505000FF3F000000000080000000000000000092
:105060000000000001020304060708090000000018
:10507000010203040040400004403C0008403800A6
:105080000C4034001040300014402C001840280020
:105090001C4024002040200024401C002840180010
:1050A0002C4014003040100034400C003840080000
:1050B0003C40040040400000403C040040380800F0
:1050C00040340C0040301000402C140040281800E0
:1050D00040241C0040202000401C240040142800D4
:1050E00040102C00400C30004008340040043800D0
:1050F00040003C0040520008000000207800000002
:10510000F8000008B8520008780000209808000055
:10511000140100081C00000043000000F8FFFFFF1E
:105120000C0000000E0000000F0000002E00000028
:105130001001000043000000F8FFFFFF0040404066
:10514000404040404040414141414140404040405A
:105150004040404040404040404040404005020206
:1051600002020202020202020202020202202020C5
:105170002020202020202002020202020202909021
:10518000909090901010101010101010101010101F
:105190001010101010101010020202020202888873
:1051A000888888880808080808080808080808087F
:1051B0000808080808080808020202024000000067
:1051C00000000000000000000000000000000000DF
:1051D00000000000000000000000000000000000CF
:1051E00000000000000000000000000000000000BF
:1051F00000000000000000000000000000000000AF
:10520000000000000000000000000000000000009E
:10521000000000000000000000000000000000008E
:10522000000000000000000000000000000000007E
:10523000000000000000000000000000000000006E
:10524000090909020201050532281E140A000F0F80
:105250000F0000000C0C0C00000009090900000000
:105260000707070000000505050000001E1E0000DE
:1052700000001919000000001414000000000F0FB6
:10528000000000000A0A00000000001E1E000000CE
:10529000001919000000001414000000000F0F0096
:1052A0000000000A0A0000000100000004000000E5
:0852B00000127A000A00000060
:04000005080000B53A
:00000001FF
