:020000040800F2
:100000005008002055020008E12F0008B92E000812
:1000100000000000000000000000000000000000E0
:10002000000000000000000000000000E52F0008B4
:100030000000000000000000E32F0008E72F000888
:10004000670200080000000067020008670200085D
:1000500067020008670200086702000867020008DC
:10006000000000006702000867020008D51B0008B6
:10007000670200086702000867020008000000002D
:10008000670200086702000800000000670200081D
:10009000670200086702000867020008670200089C
:1000A000670200086702000867020008670200088C
:1000B0000934000800F002F800F0BDF80CA030C8C8
:1000C000083824182D18A246671EAB4654465D46D4
:1000D000AC4201D100F0AFF87E460F3E0FCCB646E1
:1000E0000126334200D0FB1AA246AB4633431847E1
:1000F000B4350000D4350000103A02D378C878C176
:10010000FAD8520701D330C830C101D504680C6059
:10011000704700000023002400250026103A01D378
:1001200078C1FBD8520700D330C100D50B607047AF
:1001300010B56E2902D100F0D1FA10BD702902D19C
:1001400000F013FC10BD662902D103F011FA10BDB6
:10015000652902D103F00CFA10BD672902D103F022
:1001600007FA10BD612902D103F00AFA10BD036835
:100170001B0A01D380231943692902D100F078FAC0
:1001800010BD642902D100F073FA10BD752902D1A7
:1001900000F06EFA10BD6F2902D100F091FB10BD86
:1001A000782902D100F0CEFB10BDE92902D100F080
:1001B0002DFB10BDE42902D100F028FB10BDF5296C
:1001C00002D100F023FB10BDEF2902D100F084FB27
:1001D00010BDF82902D100F0C3FB10BD0368DB0994
:1001E00001D380231943632902D101F0A8F810BD7F
:1001F000732902D101F0ABF810BDE32902D101F05F
:10020000B5F810BDF32902D101F0B8F810BD0020F7
:1002100010BD1FB501F012F904000020002103F009
:1002200091F9401C60600020002103F075F9E06046
:100230001FBD10B510BD01F0D9F81146FFF7E9FF59
:1002400003F042F901F06EFC03B4FFF7F2FF03BCC8
:1002500001F0B8FC0748804707480047FEE7FEE783
:10026000FEE7FEE7FEE7FEE704480549054A064BC0
:10027000704700005B300008B50000085002002005
:10028000500800205004002050040020FEB5054610
:1002900010460C46184373D0AE468C460020AD1A6B
:1002A00001469C4167D36646002701243D46B61AA5
:1002B0009D4102D313463A462124654676462F04D3
:1002C000360C3E432D0CB61A9D4104D3150C1B046D
:1002D0002B4312041034654676462F06360A3E43F9
:1002E0002D0AB61A9D4104D3150E1B022B43120290
:1002F0000834654676462F0736093E432D09B61A5F
:100300009D4104D3150F1B012B431201241D65468B
:100310007646AF07B6083E43AD08B61A9D4104D3F2
:10032000950F9B002B439200A41C65467646EF0771
:1003300076083E436D08B61A9D411AD392185B4168
:10034000641C16E00018764665464941B71A9D417F
:100350000191009009D36046B11A98418E468446B7
:10036000009801990025401C6941DD0752082A4385
:100370005B08641EE6D57246634603B0F0BDFFE736
:1003800000200146C046C0462A462346F5E7000045
:100390007CB51D4616460C00009001D00019401E89
:1003A000084B7B442A4669460190304600F0AFF97D
:1003B000002C054603D06946002000F0BBF9284612
:1003C0007CBD00009903000030B5441C03E00178B7
:1003D000401C00290DD08107F9D10B4BDD0104C869
:1003E000D11A91432940FAD0001B0A0603D0C01E3F
:1003F00030BD001B30BD0A0401D0801E30BD090293
:10040000FCD0401E30BD00000101010101E004C02C
:10041000091F0429FBD28B0701D50280801CC90764
:1004200000D00270704700290BD0C30702D00270C1
:10043000401C491E022904D3830702D50280801C78
:10044000891EE3E70022EEE70022DFE7002203092E
:100450008B422CD3030A8B4211D300239C464EE0DF
:1004600003460B433CD4002243088B4231D303099B
:100470008B421CD3030A8B4201D394463FE0C3094D
:100480008B4201D3CB01C01A524183098B4201D365
:100490008B01C01A524143098B4201D34B01C01A50
:1004A000524103098B4201D30B01C01A5241C308C8
:1004B0008B4201D3CB00C01A524183088B4201D337
:1004C0008B00C01A524143088B4201D34B00C01A23
:1004D0005241411A00D201465241104670475DE038
:1004E000CA0F00D04942031000D3404253400022BB
:1004F0009C4603098B422DD3030A8B4212D3FC2264
:10050000890112BA030A8B420CD3890192118B42E2
:1005100008D3890192118B4204D389013AD09211F8
:1005200000E08909C3098B4201D3CB01C01A5241B3
:1005300083098B4201D38B01C01A524143098B427C
:1005400001D34B01C01A524103098B4201D30B0165
:10055000C01A5241C3088B4201D3CB00C01A52418A
:1005600083088B4201D38B00C01A5241D9D2430871
:100570008B4201D34B00C01A5241411A00D20146AE
:10058000634652415B10104601D34042002B00D518
:100590004942704763465B1000D3404201B50020DA
:1005A000C046C04602BD70477047704770B50446EC
:1005B00085690068C10601D5302600E02026C00705
:1005C00007D070BD62683046A1689047206A401C21
:1005D00020626D1EF6D570BD70B504468569007841
:1005E000C00707D170BD6268A16820209047206ACB
:1005F000401C20626D1EF6D570BD09684A0501D504
:1006000040B27047C905FCD500B2704709684A0579
:1006100001D5C0B27047C905FCD580B2704770B52E
:100620000C460546012A05D02878800600D5EA69DF
:10063000002302E0012305E05B1C934202D2E05C50
:100640000028F9D1A869E618C01AA861286AC0185C
:1006500028622846FFF7AAFF04E06A682078A968A4
:10066000641C9047B442F8D32846FFF7B5FF70BD2D
:10067000F7B5002575291068009914A611D0FFF769
:10068000BCFF002802DA404211A608E00099096880
:100690008A0701D50FA602E0490704D50EA6012559
:1006A00001E0FFF7B3FF009F0024243704E000F0CF
:1006B00089FE30313955641C0028F8D12B4632466A
:1006C0002146009800F05FFAFEBD00000000000027
:1006D0002D0000002B0000002000000011680268BF
:1006E000006A530501D5087009E0D30501D50880DB
:1006F00005E0130602D5C21705C100E0086001201D
:100700007047000001694A1C02610878704700B513
:100710008FB002910021059105490193794403911D
:1007200011460490684600F02DF90FB000BD00009E
:10073000E5FFFFFF0A681070521C0A6070470CC981
:1007400008399A4202D2531C0B60107070470000A7
:10075000F7B50446154686B02B487844002703C8F1
:100760003E460090019111E007986A467100415A97
:1007700002A800F007FE411C07D02178890603D5A6
:10078000E269391891420ED83F18761C207880060D
:1007900002D5E069B84206DDAE42E5DB079871009C
:1007A000405A0028E0D1A069C01BA0612046FFF795
:1007B000FDFE154878445A3803C800900020019186
:1007C00016E041006A460798415A02A800F0DAFD97
:1007D0000590401C0AD0002505E0626802A8A168C7
:1007E000405D90476D1C05988542F6D30498401CE7
:1007F000B0420490E5DB206AC01920622046FFF772
:10080000EBFE09B0F0BD00004A2E0000F7B5D21D86
:100810000025D20815A6D200F52905CA11D0002A54
:1008200005DA00214042914111A60A4608E00099EC
:1008300009688B0701D50FA602E0490701D50EA66E
:1008400001251146009F0024243704E000F05EF9E2
:1008500030323A55641C02460A43F7D12B463246E1
:100860002146009800F08FF9FEBD00000000000056
:100870002D0000002B0000002000000070B5044691
:100880000021243408E05507D2086D0F3035655437
:100890005D072A43DB08491C15461D43F3D1046854
:1008A000002310A2250708D5A40601D4002904D0EE
:1008B000C46901230CA2641EC46100F064F970BD18
:1008C00010B5044621461068FFF7A0FE002302463B
:1008D0002046FFF7D3FF10BDD21DD108C9000CC9B7
:1008E000CCE700000000000030000000F8B50F4623
:1008F0000188090502D5224C7C4402E0204C7C444E
:100900000E3405460021243508E016071209360F7B
:10091000A65D6E541E0732431B09491C16461E4332
:10092000F3D1224604780023240705D5702F06D082
:10093000002901D00223113200F025F9F8BD01236E
:100940001032F9E770B504460D4621461068FFF7EE
:100950005DFE0023024629462046FFF7C7FF70BD13
:10096000D21DD308DB000CCBC0E730B403682024D1
:100970001268234303600823C36130BC0023B5E73A
:10098000B42C0000F3B50446002081B0206220465C
:10099000E1688847002872D0252802D06268A168E3
:1009A000ABE0594F00267F442046E1688847202865
:1009B000054608DB312D06D278192038007800284A
:1009C00001D00643F0E7B00701D50420864300209C
:1009D000E0610746A0612A2D0AD0284602F06CFD8E
:1009E000002827D0B8000019303D0090856119E03B
:1009F0000298BA00121902C8916102902046E1687B
:100A00008847012F054617D1E06900281FDA20200A
:100A100086431CE000980A218069484300994019E8
:100A2000303888612046E1688847054602F044FD79
:100A30000028EFD1012F0AD02E2D08D12046E168E1
:100A400088470546202006437F1C022FC3DBA06990
:100A5000002803DA4042A06101200643F00701D0DC
:100A6000102086436C2D0BD0682D09D04C2D3CD026
:100A70006A2D38D0742D38D07A2D36D016E040E06B
:100A8000E1682F4620468847B842054609D16C2FB9
:100A900029D001208002E1680643204688470546A8
:100AA00004E06C2F1DD0FF2001300643002D28D01C
:100AB00028464138192803D80120C00206432035B2
:100AC000204626602946029A1646FFF731FB002889
:100AD00010D001280BD0F61DF008C000083002909D
:100AE00055E74020E1E78020D5E70020D3E7361D19
:100AF00002964CE762682846A1689047206A401C2D
:100B000044E7206AFEBD00002E2C00000B4670B5A5
:100B1000024689078008084319469D08141AA9410E
:100B200025090807054308092C194841250A01062B
:100B30000D43010A2C194141200C0D0428430D0CD2
:100B400000194D41002140194D41C0086907084373
:100B5000E908840F8D002543840024184D41241991
:100B60006D41121BAB4107E00925ED432C115219D1
:100B700063410024401C61411C460A250026551B88
:100B8000B441F1D270BDFFB504460D4681B02430AA
:100B900000902168880604D51022E0699143216005
:100BA00000E00120A84201DD471B00E00027049877
:100BB000A1697A191018081AA0612078C00602D419
:100BC0002046FFF7F3FC002608E003986268A1685E
:100BD000805D9047206A401C761C20620498864203
:100BE000F3DB2078C0060AD52046FFF7DFFC06E0DD
:100BF0006268A16830209047206A401C2062384615
:100C00007F1E0028F4DC07E000986268A168405D60
:100C10009047206A401C206228466D1E0028F3DCA5
:100C20002046FFF7D9FC2078000602D5022005B047
:100C3000F0BD0120FBE700007047FFB50C461E46E3
:100C40008FB003CA089009914F007D0D00D16D1E31
:100C5000002108460020C0460321099A8905084062
:100C6000002A03DA8200801840080840800D01281D
:100C70000A9002DD0020C0430A90089807430DD077
:100C8000F048F149281848430714189800281DD047
:100C90007542291E1DDD0A9842421BE01898012862
:100CA00002D00020302104E00020F24305E021546E
:100CB000401CB042FBDB30460022189B002121542F
:100CC0000F998B600A60486013B0F0BDBD1B6D1CAE
:100CD000DFE70A9A002900DA69420BA800F0F6FB68
:100CE0000BAB07CB03AB07C30899099800F05AFC7C
:100CF0006B4607C30146D5480918002D00910BDD4E
:100D0000D24903980A9A49424018002303A9039044
:100D1000684600F0B7FE08E003990A9A0023081815
:100D200003A90390684600F057FE6B4607C3000412
:100D3000000C03D00020C043410800E01046189A80
:100D4000002A03D00022009215461EE0751E05D42D
:100D5000FFF7DCFE303262556D1EF9D501220843E3
:100D6000079602D000227F1C04E02078302801D1B1
:100D700000227F1E002A069787D01EE0112D07DA79
:100D8000FFF7C4FE303262556D1C02460A43F5D1AE
:100D9000084303D00098002819D00EE00021681EF7
:100DA00005E0235C625C63542254401E491C81426E
:100DB000F7DBA81B401E07950690079A189900209C
:100DC000A0540F98079B069A81600CC07CE71126FF
:100DD0000020189059E7D21DF0B50D460446D10801
:100DE00093B0C90003C90C900D9102F02DFB02468F
:100DF0000D98C00F01D02D2007E02068810701D594
:100E00002B2002E04007C00F4001032A0F9001D0C1
:100E1000072A05DB03462946204600F013FB0EE1B6
:100E20002078800601D5E76900E006272846652D71
:100E300004D0662814D0672D69D12DE00020112F31
:100E4000009001DB112300E07B1C0CAA03A910A871
:100E5000FFF7F3FE1199002610987D1C0E9142E0D9
:100E600001203B460CAAC0070B900120009003A96B
:100E700010A8FFF7E2FE119D129810990026002895
:100E80000E9501D1781C0D18781B02D446427D1CAA
:100E9000761EE81B00903AE0012F00DA01270020BF
:100EA000112F009001DD112300E03B460CAA03A99D
:100EB00010A8FFF7C2FE11993D46109800260E912A
:100EC000217809070BD40E99A94200DA0D4603A92F
:100ED000012D04DD4A19203AD27F302A06D0B842CB
:100EE00001DA011D04DA012100910FE06D1EEFE728
:100EF000002802DC86192D1A03E0411CA94200DDFE
:100F00000D46801B401C00900120C0070B902078EC
:100F1000000705D40098A84202DB0020C0430090DF
:100F200069460020C8720B98012102AF0337C90738
:100F3000884225D0022010902B2011900B98002879
:100F40000BDA40420B902D20119006E00B9800F038
:100F500039FA30317F1E0B9039701099481E0029E4
:100F60001090F3DC0B980028F0D111987F1E387098
:100F70002088000501D5452000E065207F1E3870DF
:100F800001A8C01BC01D0B900F98002800D00120A5
:100F900041190098C01709180B980818A169081A78
:100FA000401EA0612078C00602D42046FFF7FEFA5A
:100FB0000F98002805D06268A1689047206A401CFD
:100FC00020622078C00625D52046FFF7EFFA21E001
:100FD000002E07DB0E98B04204DD03A86268805D36
:100FE000A16802E06268A16830209047206A761C00
:100FF000401C20620098401E002800900AD100F09A
:101000001DFAC06862680168405CA1689047206A68
:10101000401C206228466D1E0028D9DC07E062686B
:101020003878A1687F1C9047206A401C20620B9989
:10103000481E00290B90F2DC2046FFF7CDFA032072
:1010400042E6000001FCFFFF104D0000E1DFFFFF62
:10105000D21DF0B504460D46D0088DB0C0004668DC
:1010600007683146384602F0EFF90246F00F01D02A
:101070002D2307E02068810701D52B2302E04007DC
:10108000C00F43016846002B037001D0012000E02F
:101090000020032A0A9001D0072A04DB29462046B3
:1010A00000F0D0F92DE12078800601D40D2500E074
:1010B000E5697000400D0D2D01904BDA300D0021D7
:1010C0000B9008460020C046032189050840002EE9
:1010D00005DA82008018C20F1018401008408015F1
:1010E000012801DD0020C043A9000023182906D3F0
:1010F0009C460A460123183A1B07D34003E001220D
:101100001205CA4094460C31202902D33A462039B0
:1011100000E032468A40002802DD002A06D119E0AC
:10112000002817D10121C9078A4213D31946634603
:101130007F185E41002806D10120C007824202D1FB
:10114000084687439E430B98310D814202D0019897
:10115000401C01902088000502D57149794402E0C5
:101160006F49794419396B460A9830221A540A9803
:101170000A7C401C1A54401C0A900198002801DC8B
:10118000302000E031201872019A0120002A02D09C
:10119000644BD21804E072003A4302D0614A521CF8
:1011A0000192002D02DC2278120703D56A462E2018
:1011B000507202200022864694460CE0320336012B
:1011C000120F6D1E8B5C02AA13546246521C401C07
:1011D0009446052A01DA002DF0DC002202AE08E078
:1011E0003B0F3F01CB5C521C6D1E3354401C082A40
:1011F00001DA002DF4DC23689A0601D511E0401EC7
:10120000704504DD3218203AD27F302AF7D000280A
:1012100007DD3218203AD27F2E2A02D11A0700D4D5
:10122000401E002D03DD3E223254401C6D1E497CC1
:1012300031540199401C002906DA2D21471C3154F4
:1012400001984042019003E02B21471C3154019842
:101250007D21C900884206DBFFF702F93030F055E6
:101260007F1C019101E0642808DB01986421FFF7ED
:10127000F7F83030F0557F1C019101E00A2806DBB9
:1012800001980A21FFF7ECF83030F0557F1C0198E7
:101290000A21FFF7E5F83031F1550A98A1697F1C62
:1012A0007A191018081AA0612078C00602D42046C6
:1012B000FFF77CF9216A6E460A980818206204E05C
:1012C00062683078A168761C90470A98401E0A90A0
:1012D000401CF5D12078C00602D52046FFF766F9FC
:1012E00002AE09E03078761C3E280DD06268A16815
:1012F0009047206A401C20627F1EF3D22046FFF7F1
:101300006BF90DB00320F0BD206A4019206203E0A4
:101310006268A168302090476D1EEDD3F8E70000A9
:101320009C24000001FCFFFF10B54369002B02D094
:10133000C046C04601E0FFF772F9012010BD1278E7
:10134000014624310A7000224A700122ECE711683C
:101350000022D243E8E710B54369002B02D0C04613
:10136000C04601E0FFF7F4F9012010BD12880146E4
:10137000243182840022C2840122ECE71168002219
:10138000D243E8E770B516460C46054600F04EF825
:101390000368FF200230C05C012807D0FF2C0ED864
:1013A000185D00280BD001202C7070BDFF33324631
:1013B000214608331868C3182846984770BD002096
:1013C000C04370BD01468008081A02091018020ABD
:1013D0001018020C1018C008820012185200891A46
:1013E00001E0401C0A390A29FBD27047754600F01B
:1013F000A1FBAE46050069465346C008C0008546BD
:1014000018B020B5FEF730FF60BC00274908B6468B
:101410000026C0C5C0C5C0C5C0C5C0C5C0C5C0C503
:10142000C0C5403D49008D467047000010B500F032
:1014300005F8001D10BD00BF0D21000000487047D9
:1014400010020020F8B51F46044601230068DB02A5
:10145000032601461840072A05DB002801D017A5FE
:1014600006E017A504E0002801D016A500E016A5A7
:10147000102081432160A069C01E002FA06101D00F
:10148000401EA0612046FFF791F8002F09D0384692
:101490006268A1689047206A401C2062C01C2062DC
:1014A00006E0206AFAE762682878A1686D1C904718
:1014B000761EF8D22046FFF78FF8F8BD4E414E0059
:1014C0006E616E00494E4600696E6600F7B51646BD
:1014D0008AB0334878446C4603467C33C06F5A6800
:1014E0009B680DC42E487844763003AC0DC80DC4FB
:1014F0003720C001081837211B30FEF7B1FF054621
:101500000C46803D1B3C02D56442012000E00020D7
:101510000027099010E0E0070CD00C202049784308
:10152000794432464C3941186846012300F054FA98
:101530006B4607C364107F1C002CECD1184F7F440E
:101540002E3F16E0E80712D02001C0190EC8069100
:10155000089307920068F04201D19819089032462A
:10156000012306A903A800F037FA03AB07C36D10E7
:10157000641C002DE6D10998002806D03246694641
:10158000012303A800F07EFA05E0012332466946F4
:1015900003A800F021FA0A9B07C30DB0F0BD0000BC
:1015A00038210000034640000A4610B5400D0BD01C
:1015B0000121C9070F24A40200191C036408214358
:1015C000540D2143D20207E000210120F2E7D40F9D
:1015D000490021435200401E0029F8DADB0FDB07E7
:1015E000184310BDFFB50D46144685B048685168D4
:1015F00001F012FF00910190A868A16801F00CFFB2
:1016000002910390A868616801F006FF029A12181F
:101610008242029201D2012000E00020019A0B18C0
:10162000D2180028019202D08A4202D903E08A42ED
:1016300001D2012000E0002000990818009068689D
:10164000A16801F0E9FE029A12188242029201D2C8
:10165000012000E00020019A0B18D2180028019206
:1016600002D08A4202D903E08A4201D2012000E07E
:10167000002000990818009028682168400049005F
:10168000400849084018FA49471814E001994000F9
:10169000C90F08430090019802994000C90F084300
:1016A0000190029803994000C90F084302900398E3
:1016B00040007F1E039000980028E7DA0898002871
:1016C00001D0EC4E00E00026B74201DA012000E034
:1016D0000020002804902AD0F71BF806C00E15D071
:1016E000029B2021091A039A8B401A430392029A03
:1016F000019BC2408B401A430292019A009BC24058
:101700008B4000991A430192C14000917B110DD08A
:101710006F460320C11A03D500218200B95003E0AF
:101720008A008100BA587A50401EF3D53746039894
:101730000299002800D00120014308980291002856
:1017400008460CD0002800D001200199019A4905D3
:1017500008430121D20AC902D202019200E001210C
:101760000E9B0122D207012B02D0002B03D013E0E5
:10177000002807D120E0904204D890420CD1019B70
:101780000B4209D0019B5918019105D10099491CC0
:10179000009101D17F1C009200280DD01021084635
:1017A0000020C0460498002806D00F98002803D0D7
:1017B000082108460020C04628682168019B009A3D
:1017C0004840C10F0598C90739430EC009B0F0BDA4
:1017D000FFB587B0099A08980899536892684068DD
:1017E000896896460022039317469446089A126821
:1017F0005300099A5B081268520052089A1A9E4BCD
:10180000D4180A9A002A01D0352200E0402206921C
:101810000022012315460492DB07059324E0002DE6
:1018200005D175460346039E4D1BB34109D375464A
:101830006646039B491B049D9841059B7519AC4660
:101840005F4163463B4308D0059B049EDD07760855
:101850002E435B080496059301E0521E641EC50FDB
:10186000ED0749184041521C069B9A42D7DB002DD8
:1018700004D17546039A6B1A824101D203200CE011
:10188000039A0B466B404240134303D0014303D0FD
:10189000012002E0022000E00020614601910021C9
:1018A000009702910A99002905D061464002014340
:1018B000704B019102E08007002302909C4201DA04
:1018C000012000E0002007003AD01A1BD006C00E0D
:1018D00015D0029D2021019C091AC5408C4025434A
:1018E000029C8C4000D001242543019C0295009D60
:1018F000C4408D4000992C430194C1400091541183
:101900001DD06D460221002202290CD10320001BAC
:1019100007E0002804DB8600AE59002E00D001222B
:10192000401C0328F5DB081B02D588002A5004E080
:101930008000285810438A00A850491EE3D51C4651
:101940000A98002802980CD0002800D001200199A4
:10195000019A490508430121D20AC902D202019223
:1019600000E00121109B0122D207012B02D0002BA5
:1019700003D013E0002807D11FE0904204D8904222
:101980000CD1019B0B4209D0019B5918019105D143
:101990000099491C009101D1641C009200280CD0D0
:1019A000102108460020C046002F06D011980028BC
:1019B00003D0082108460020C04608980999019ADA
:1019C000009B006809684840C10F0798C907214378
:1019D00082600AC00BB0F0BD00B585B001930092E3
:1019E0000A460146002302A8FFF7FCFD02A807C82B
:1019F00005B000BDFFB50A461F4685B007990193A3
:101A000001230091014602A8FFF7ECFD029903981B
:101A1000049ECA0F4900D20700920F224908920281
:101A20008C1A0021002800DB0C46450013486D0885
:101A3000844214D3079A002A04DA441E0026104D6B
:101A4000F64302E004460D460E46102108460020EB
:101A5000C046002F03D0042108460020C0462005C0
:101A6000E90A0843009908436905F20A1143ADE603
:101A700002C0FFFF013C0000FF3F0000FF07000025
:101A8000FFFFFF7F00B585B0019300920A46014633
:101A9000002302A8FFF79CFE02A807C8A8E7FFB52D
:101AA0000A461F4685B0079901930123009101461C
:101AB00002A8FFF78DFE02990398049ECA0F490001
:101AC000D20700920F22490892028C1A00210028A6
:101AD00000DB0C46450011486D08844214D3079A78
:101AE000002A04DA441E00260D4DF64302E00446A7
:101AF0000D460E46102108460020C046002F03D098
:101B0000042108460020C0462005E90A0843009940
:101B100008436905F20A114358E60000FF07000078
:101B2000FFFFFF7F10B50446C046C0462046FEF7C3
:101B30008BFB10BD00487047F0010020024670B5D5
:101B40000A4392072AD11E4DEE0104C808C9541B4E
:101B50009443344017D0D0B2D9B2401A2106014381
:101B600010D190B299B2401A210401430AD1100257
:101B70001902000A090A401A2102014302D1100E7B
:101B8000190E401A70BD9A42DFD010BA19BA8842B5
:101B900001D9012070BD0020C04370BD02780B78D0
:101BA000401C491C002A09D09A4207D102780B78C0
:101BB000401C491C002A01D09A42EFD0D01A70BDB7
:101BC0000101010101491820ABBEFEE72600020019
:101BD0007047000010B5034800F0D8F8024800F044
:101BE000D5F810BDAC0100206801002010B50446F6
:101BF0000068054940181421FEF728FC8000206485
:101C00000248E06310BD0000F8FFFDBF0000024085
:101C100010B500F025FA0A4C2168401AFF21F53171
:101C200088420BD300F01CFA20602021054800F008
:101C300009FA09200221C00600F004FA10BD0000D4
:101C400000000020000400480FB410B540210F48E8
:101C5000FEF7F8FB03AB40210C48029AFEF798FB15
:101C60000A48FEF7B1FB0006000E0AD0074A0A2117
:101C70001154401CC2B20023DB430449044801F064
:101C8000B1F810BC08BC04B0184700005800002090
:101C9000E400002010B540210B48FEF7D3FB0A49B1
:101CA00000230522094801F01FF8014608A0FFF7AC
:101CB000CBFF05490AA0FFF7C7FF0B4801780BA02F
:101CC000FFF7C2FF10BD000018000020E400002054
:101CD000666C616720312072652025640000000079
:101CE0005B25735D00000000040000204472765FF5
:101CF00053455249414C5F50726F63202564000088
:101D000072B6FEE730B5014620314B780022022B37
:101D100004D0042383630A70012030BD03681C686B
:101D20000E25AC431C6003681C68640864001C60DA
:101D30000123056C1C46C06BAC4044604B700A70BC
:101D4000002030BD70B50024014620314A78022AB7
:101D500003D004218163012416E0026813680E2574
:101D6000AB431360026813685B085B0013600122D9
:101D7000056C1346AB40C56B6B604A7000220A705D
:101D8000416B002900D08847204670BDF0B4C16B7C
:101D90000D6801680C680422066C1346B3402B42A0
:101DA0000DD063070BD50B689B0602D40B689343D9
:101DB0000B60016C8A40C16B4A60C16A19E002275E
:101DC000B74002462F4001232032002F15D0A7072D
:101DD00013D50C68A40604D40C680A25AC430C6027
:101DE0005370036C02219940C36B5960002111703C
:101DF000816A002916D0F0BC08470827B7402F4257
:101E000010D024070ED50C680E25AC430C60046C72
:101E10001946A140C46B6160836353700021117047
:101E2000016BE6E7F0BC704770B5040021D00221D9
:101E30002046203005464170226811680E48A3688C
:101E40000140606826691843E368334318436369B7
:101E50001843A3691843E3691843084310602046F8
:101E6000FFF7C4FE0021A1630120687029700846B5
:101E700070BD012070BD00000FC0FFFF70B50446AB
:101E800000F0EEF80546601C02D0044800782418E3
:101E900000F0E6F8401BA042FAD370BD0800002015
:101EA000F8B5002303240125BAE02E469E40B4462F
:101EB00032407CD00E79B607B60F012E01D0022E2B
:101EC00017D186682746B6465E00B740009676462C
:101ED000BE43B646CF68009EB7407646374387601C
:101EE00046686746BE430F79FF06FF0F9F403743A2
:101EF00047600E79F643B6070ED0C6682746B4464B
:101F00005E00B646B7406646BE43B4468F68764626
:101F1000B74066463743C7600E79B607B60F022E44
:101F200014D1DE08B60036180096366A5F07B4464C
:101F3000FE0E0F27B646B7406646BE43B4460F694D
:101F40007646B74066463743009E376206682746A6
:101F5000B4465E00B646B7406646BE430F79B44607
:101F6000BF07BF0F7646B7406646374307604E68E7
:101F7000B603B60F53D02D4FBE692E43BE61BE6966
:101F80009F08F607F60F2A4EBF00BE190096B668E6
:101F90000F27B4469E07360FB646B7406646BE4387
:101FA0000927FF06B446B84202D1002710E036E008
:101FB000204FB84201D101270AE01F4FB84201D19A
:101FC000022705E01D4FB84201D1032700E0052795
:101FD0007646B74066463743009EB760184E36686F
:101FE0004F689643FF0300D51643154F3E607E6849
:101FF0004F689643BF0300D51643114F7E60BE68FD
:102000004F689643FF0200D516430D4FBE60FE6831
:102010004F689643BF0200D51643094AD6605B1C41
:102020000A681646DE4000D03FE7F8BD00100240C7
:10203000000001400004004800080048000C00486F
:1020400000040140426913460B401B0491430B43BB
:1020500083617047002A01D08161704781627047B7
:1020600001488068704700000800002070B50246F3
:1020700040325378202B1CD11378012B19D0012327
:10208000137024245470046825689D4325600468F7
:1020900025681E03B5432560046825680D43256047
:1020A0000068016819430160202050700020107002
:1020B00070BD022070BD70B5024640325378202BAF
:1020C0001BD11378012B18D00124147024235370D2
:1020D00003681D68A5431D6005682B680F2636023E
:1020E000B343090219432960006801682143016074
:1020F000202050700020107070BD022070BD0000C4
:1021000070B5040006D025464035687800260028C2
:1021100002D005E0012070BD2E70204600F04AF884
:1021200024206870206801684908490001600F2177
:102130006068090688432168086121688A6801206F
:10214000C00382438A60E1680129A16808D0212286
:102150009202114322689160E168022902D005E0F1
:102160000143F7E701212268C902516021684A68EA
:102170000F4B1A434A602168CA688243CA6061698A
:1021800020690843A169090208432168C860216ADF
:10219000E069084321680860206801680122114352
:1021A00001606664202068702663AE70002070BDF8
:1021B0000080000210B586B0044614216846FEF780
:1021C00043F91349206888421FD1124C61690120EC
:1021D00080040143616161690140032005910002AF
:1021E0000090122001900020029003200390012013
:1021F000049069460848FFF753FEE1690120400555
:102200000143E161E1690140059106B010BD0000A4
:102210000054004000100240000400480248816859
:1022200002788918816070470800002010B50648C0
:102230000168102211430160032000F007F800F04C
:1022400027F8002010BD00000020024070B50446B1
:102250000D4D7D202978C000FEF7F8F801460B48A7
:102260000068FEF7F3F800F043FB002809D1042CC6
:1022700007D200222146401E00F02AF800206C60A0
:1022800070BD012070BD0000080000201400002077
:1022900008B50848816901221143816181691140B3
:1022A0000091C26901040A43C261C06908400090FC
:1022B00008BD000000100240002805DBC106C90E61
:1022C00001208840014908607047000000E100E0FB
:1022D00010B501F0CFF810BDF8B505460068354CD3
:1022E000C00352D5E0690026C00007D4E16920048C
:1022F0000143E161E1690140012600912E48016836
:10230000C90510D40168821511430160FFF7A8FECA
:10231000074604E0FFF7A4FEC01B642824D8264823
:102320000068C005F6D5206A03273F02384020D058
:102330006968394081421CD0206A226AB843012171
:1023400009040A432262226A8A4322622062C00789
:102350000FD0FFF785FE009008E0FFF781FE00999F
:10236000411A1648814201D90320F8BD206A80072E
:10237000F3D5206A6968B84308432062002E04D070
:10238000E169012000078143E1612878C00705D099
:10239000206BA968800880000843206328788006A5
:1023A00005D5206B10218843E9680843206300208D
:1023B000F8BD0000001002400070004088130000CB
:1023C000F8B50F46060059D03A4D2868C007C00F2F
:1023D000B84209D22868400840003843286028687D
:1023E000C007C00FB84249D13068334C81070CD5C3
:1023F000400704D5606807210902084360606068EF
:10240000F0218843B168084360603078C00726D067
:10241000706801280ED0216802280ED08907002993
:102420002CDA61688908890001436160FFF718FEB2
:1024300000900DE021688903F1E78901EFE7FFF7DC
:102440000FFE0099411A1D48814201D90320F8BDB1
:1024500060680C210840716889008842EFD12868C3
:10246000C007C00FB8420BD9286840084000384365
:1024700028602868C007C00FB84201D00120F8BD0D
:102480003078400706D56068072109028843F16863
:102490000843606000F028F86168094A0906090FDE
:1024A000515CC840074908600320FFF7CFFE0020B9
:1024B000F8BD000000200240001002408813000018
:1024C0009035000814000020044805490068496858
:1024D000044A4905490F515CC84070471400002068
:1024E00000100240A035000810B514A30FCB88B02F
:1024F0006C460FC415A30FCB0FC4184A51680C20AB
:102500000B4603401648042B16D0082B14D18B021F
:102510001B0F6C46E45CD26A04AB1207120F9A5C84
:10252000C90305D500231946FDF7B0FE214601E099
:1025300020460C4900F070FF08B010BD02030405EE
:10254000060708090A0B0C0D0E0F101001020304F8
:1025500005060708090A0B0C0D0E0F1000100240AB
:1025600000127A0000093D00FEB5040070D020780A
:10257000DC4DC0074AD068680007800F012807D0EB
:1025800068680007800F022809D16868C00306D573
:10259000286880033AD560680028E7D036E0616893
:1025A000012914D001208004002901D0052914D06C
:1025B0002A68012109048A432A6029688143296025
:1025C0006068002816D0FFF74BFD06460EE028682D
:1025D0000121090408432860F2E7296801432960C2
:1025E000F5E7FFF73DFD801B64286ED8286880035F
:1025F000F7D50BE0FFF734FD064604E0FFF730FDAA
:10260000801B6428F1D828688003F7D4207801263D
:10261000800700283CDA68680007800F07D06868E8
:102620000007800F022809D16868C00306D4286813
:10263000800716D5E06801280AD112E0E06800287A
:10264000286816D030432860FFF70AFD074605E0EA
:1026500043E1FFF705FDC01B0228C6D828688007A4
:10266000F7D52868F82188432169C9000843286004
:102670000EE0400840002860FFF7F2FC074604E047
:10268000FFF7EEFCC01B0228AFD828688007F7D4FC
:102690002078000722D5E0690028686A0ED0304310
:1026A0006862FFF7DDFC074604E0FFF7D9FCC01BBA
:1026B00002289AD8686A8007F7D50FE040084000E2
:1026C0006862FFF7CDFC074605E09DE0FFF7C8FC18
:1026D000C01B022889D8686A8007F7D420780427AD
:1026E0004007002860DA00200190E869C00008D4A3
:1026F000E969B8060143E961E969014001200091F7
:10270000019079480168C90511D401688215114307
:102710000160FFF7A5FC009005E0FFF7A1FC009920
:10272000401A642870D870480068C005F5D5A068C4
:1027300001280AD0002801D0052810D0286A4008B6
:1027400040002862286AB84301E0286A30432862C2
:10275000A068002812D0FFF783FC00900AE0286AE6
:1027600038432862F1E7FFF77BFC0099411A5F4884
:10277000814249D8286A8007F5D50DE0FFF770FC43
:10278000009006E0FFF76CFC0099411A574881421F
:102790003AD8286A8007F5D40198002804D0E9695E
:1027A000012000078143E9612078C00635D56069C2
:1027B00001280CD0401D686B23D038436863686BD8
:1027C000400840006863FFF74BFC064622E0686B58
:1027D00038436863686B30436863FFF741FC064623
:1027E00004E0FFF73DFC801B02285BD8686B800784
:1027F000F7D5686BF8218843A169C900084368636D
:102800000BE0B8436863F4E74CE0FFF729FC801B5A
:10281000022847D8686B8007F7D4206A00285ED06A
:1028200069680907890F022942D001263606022865
:10283000286805D0B0432860FFF712FC044633E057
:10284000B0432860FFF70CFC074604E0FFF708FCE4
:10285000C01B022826D828688001F7D4E86AE16AFC
:10286000000900010843E862616AA06A08436968D8
:102870003D22120491430843686028683043286071
:10288000FFF7EEFB044604E0FFF7EAFB001B02281B
:1028900008D828688001F7D521E0FFF7E1FB001B8D
:1028A000022801D90320FEBD28688001F5D416E076
:1028B0000128F8D06868E96A01221204636A0240BC
:1028C0009A420AD10907E26A090F914205D10F2104
:1028D00089040840A16A884201D00120FEBD002081
:1028E000FEBD000000100240007000408813000090
:1028F000094910B5401E884201D9012010BD074C7E
:1029000060610321081F00F0B5FD0020A0610720D1
:102910002061002010BD0000FFFFFF0000E000E08C
:1029200070477047F8B502680446D0691168966828
:102930009C4B05461D402023002D75D0F7079A4D6E
:10294000FF0FBC460D402F436DD02546C70780358D
:10295000002F06D0CF0504D5012717622A683A4315
:102960002A60820708D5F20706D0276802223A6259
:102970002A6804273A432A60420708D5F20706D09E
:102980002668042232622A68022632432A6002073D
:102990000AD50A461A406646324305D02668082200
:1029A00032622E6816432E60020508D54A0106D50C
:1029B00001222668D20232622A681A432A602A68F3
:1029C000002A39D0800606D5880604D5616E002914
:1029D00001D020468847286821688968490602D4C2
:1029E000282108422DD0204600F0DAFB21688868B3
:1029F000400622D5EFF31080012282F310888B6805
:102A0000402293438B6080F31088206F002814D0FD
:102A100066494163206FFFF795F900280CD0206FBD
:102A2000416B08E000E012E0850610D58D060ED55A
:102A3000616E9DE020468847F8BD2046FFF771FF94
:102A4000F8BD2046FFF76DFF00202860F8BD256E19
:102A5000012D7DD1C5067BD5CD0679D51026166210
:102A600022689068254640064035002845DA216FE7
:102A7000086840680004000CE8D02F8B8742E5D935
:102A800068838869202833D0EFF31080012181F317
:102A9000108811683701B943116080F31088EFF393
:102AA0001080012181F3108821688A685208520041
:102AB0008A6080F31088EFF31080012181F3108881
:102AC00021688A684027BA438A6080F31088E367E8
:102AD00000202066EFF31080012181F31088216827
:102AE0000A68B2430A6080F31088206FFFF70AF982
:102AF000288B698B401A81B231E0288B698B401A90
:102B000081B2688B0028A1D000299FD0EFF31080FC
:102B1000012585F310881568FF272137BD4315600F
:102B200080F31088EFF31080012282F3108822686E
:102B300095686D086D00956080F31088E36700204C
:102B400020666066EFF31080012282F3108800E0B7
:102B500009E022681368B343136080F310882046AD
:102B6000FFF7DEFEF8BD050606D50D0604D5A16EFD
:102B7000002900D05EE7F8BD4006FCD54806FAD52E
:102B80002046EFF31081012484F310881468402557
:102B9000AC43146081F3108883670021816600F0E4
:102BA0008AF9F8BD0F080000200100048D310008EB
:102BB00010B5040003D0A06F002802D007E0012068
:102BC00010BD002174200155204600F027F8242074
:102BD000A06720680168490849000160204600F0AC
:102BE0000FFB0128ECD0606A002802D0204600F0DC
:102BF00035FA206841680122D20291434160206881
:102C00008168082291438160206801680122114394
:102C10000160204600F088FA10BD0000F0B587B0D2
:102C2000064614216846FDF70FFC2A4930688842A1
:102C30004DD12948C269012149040A43C261C269D0
:102C40000A40059242690A434261406900240840F3
:102C500005900C2000900220019003200390012099
:102C60000490092002946946C006FFF719F91B4831
:102C70001B4D802711C52C60AC60EC602C616F602F
:102C80006C611748083DFFF7CFF8002801D0FFF727
:102C900037F835676E621148124D143828601020DD
:102CA000291D91C12C616C61AC612846EC61FFF774
:102CB000BBF8002801D0FFF723F8F5660022114683
:102CC0001C206E62FFF704FB1C20FFF7F5FA07B02B
:102CD000F0BD0000004400400010024058000240D7
:102CE00068010020AC010020FFB50446C06F85B02C
:102CF00017460E46202870D1002E0AD0002F08D08B
:102D0000A168C001814207D12069002804D1F007E1
:102D100002D0012009B0F0BD204660300090007D57
:102D200001285AD000980121017500208021085106
:102D30002221E1672066FFF793F92546403502908E
:102D40002F836F830120A1680003FF22814204D1F9
:102D50002369002B09D1224A07E0002901D0002273
:102D600003E02369002B00D07F22AA8392B2019254
:102D7000814202D12069002808D0374600260099F8
:102D8000002008750198C0B2039018E00027F6E70C
:102D900008980090002220212046029B00F0CAFAE9
:102DA000002801D00320B5E72068002F0ED0818CC9
:102DB0000398014039707F1C688B401E6883688BC4
:102DC0000028E5D12020E0670020A3E7808C01994E
:102DD00008403080B61CEFE7FFE702209AE70000CA
:102DE000FF010000FFB50446806F83B017460D4613
:102DF00020285ED1002D0AD0002F08D0A168C00184
:102E0000814207D12069002804D1E80702D00120BF
:102E100007B0F0BD204660300090007D012848D00A
:102E20000098012101750020802108512120A06710
:102E3000FFF716F926464036019037827782012047
:102E4000A1680003814202D12069002805D02F46E5
:102E5000002500990020087511E00027F9E70022FD
:102E60008021204600F066FA002815D1002F15D0E9
:102E70002168387808857F1C708A401E7082708AAD
:102E8000019B002806980090E9D1002240212046AD
:102E900000F050FA002808D00320B9E728882168FC
:102EA000C005C00D0885AD1CE6E72020A067002006
:102EB000AEE70220ACE77047FEE70000F0B587B050
:102EC00014216846FDF7C0FA1D48426901214904F2
:102ED0000A43426142690A400592426949000A4335
:102EE00042614069174C08400927FF0605900022FF
:102EF00021463846FFF7AEF8134E002231461348FC
:102F0000FFF7A8F800940024012501950294694672
:102F100038460394FEF7C4FF4020009011200004BF
:102F20000190694602943846FEF7BAFF029469465A
:102F30000648009601950394FEF7B2FF07B0F0BD76
:102F400000100240820900003340000000040048E5
:102F500010B5134811490160124941600021816098
:102F60000161416181610122C161C2600162FFF7BB
:102F7000C7F8002801D072B6FEE700210848FFF725
:102F800075F8002801D072B6FEE700210448FFF76B
:102F900092F8002801D072B6FEE710BD0054004040
:102FA000980000200E09002010B50C480A49016065
:102FB000E1214902416000218160C16001618161BC
:102FC000C1610C22016242614162FFF7F1FD0028FC
:102FD00001D072B6FEE710BD00440040E4000020BE
:102FE000FEE77047704710B5FFF718F910BD10B530
:102FF00094B030216846FDF727FA00240F94022090
:103000000D9400901294012003900E9413941020BC
:103010000C9404901094119408946846FFF7A4FA55
:10302000002801D072B6FEE707200C900D940E9494
:1030300000210F940CA8FFF7C3F9002801D072B645
:10304000FEE720201090139410A8FFF745F9002800
:1030500001D072B6FEE714B010BD704710B5818C78
:10306000C90707D001684A6801235B049A43836A51
:103070001A434A60818C890707D501684A68012391
:103080001B049A43C36A1A434A60818C490707D5D7
:1030900001684A6801239B049A43036B1A434A6000
:1030A000818C090707D501684A680123DB039A432D
:1030B000436B1A434A60818CC90607D50268916840
:1030C00001231B039943836B19439160818C89060B
:1030D00007D501688A6801235B039A43C36B1A43CF
:1030E0008A60818C490612D503685A680121090556
:1030F000046C8A4322435A60026C8A4207D10268F8
:10310000516803235B059943436C19435160818CDB
:10311000090607D501684A680123DB04806C9A43DD
:1031200002434A6010BD0000F8B504460026803016
:103130000660FEF795FF054620680068124F0007FD
:1031400009D501212B46002249052046009700F0B1
:10315000F1F800280DD12068006840070BD5012147
:103160002B46002289052046009700F0E3F800284E
:1031700001D00320F8BD2020A067E06726666034F8
:1031800026750020F8BD0000FFFFFF0110B5406A62
:103190000022014640314A834A82FFF7C2FB10BD3C
:1031A00010B5EFF31081012282F3108802681368D2
:1031B000FF242134A343136081F31088EFF31081BF
:1031C000012282F31088026893685B085B009360B9
:1031D00081F31088016E01290BD1EFF310810122D8
:1031E00082F31088026813681024A343136081F3EC
:1031F00010882021C16700210166416610BD0000D2
:1032000070B5044680682169E26908436169002558
:103210001143226808431168404B19400143116073
:1032200021684868032212039043E2681043486013
:10323000A169206A084321688A680B231B029A430C
:1032400002438A6036492068884210D13548006BB5
:103250008007800F0ED0012805D0022805D0032852
:103260000AD1022109E0042107E0082105E02E49E6
:10327000884201D1002100E010210120E369C00350
:103280002A4A2B4E834223D1002906D0022907D097
:10329000042907D0082937D108E0FFF715F903E022
:1032A000104603E0FFF720F9002831D061684000A4
:1032B0004A088018FDF7CAF880B201461039B142B9
:1032C00022D81B49491C01400007400F08431DE05C
:1032D000002906D0022907D0042907D0082913D1D4
:1032E00008E0FFF7F1F803E0104603E0FFF7FCF811
:1032F00000280DD061684A081018FDF7A7F880B2C1
:1033000001461039B14201D9012501E02168C860A8
:1033100000206066A066284670BD0000F369FFFFCC
:1033200000380140001002400044004000127A00C2
:10333000EFFF0000FFB581B0054617460446603533
:103340000A9E55E0701C53D0FEF78AFE0499401A7D
:10335000B04230D8002E2ED020680168490747D5EA
:10336000C069C043000543D401202168C00208623F
:10337000EFF31080012181F3108821680B68FF2290
:10338000A13293430B6080F31088EFF3108001218A
:1033900081F3108821688A68520852008A6080F39D
:1033A00010882020A067E067803420600020287506
:1033B000032005B0F0BDEFF31080012181F31088E8
:1033C00021680B68FF22A13293430B6080F31088C1
:1033D000EFF31080012181F3108821688A68520878
:1033E00052008A6080F310882020A067E067DDE744
:1033F0002068C1690298884304D00020B842A1D057
:103400000020D6E70120F9E710B50248FFF78AFA55
:1034100010BD0000E4000020F8B5040C8BB2264675
:1034200082B25E430D0C1046370C584336048019A7
:103430000021794116466E43370C360480197941D4
:1034400026466E438919F8BD4900CA02024310009E
:1034500000D004204A0D01D001221043044A490D36
:10346000914201D102210843012800D10520704773
:10347000FF0700008307FF22DB0E9A408907090E31
:103480009940002808DB830809489B001B1818682E
:1034900090430843186070470007000F08388308FE
:1034A00004489B001B18D86990430843D8617047B3
:1034B00000E400E000ED00E030380A2801D20120ED
:1034C000704700207047000008B5FEF7AFFEFFF719
:1034D0008EFDFFF7F3FCFFF73BFD0E48416901222B
:1034E00011434161406910400022009011460B20B9
:1034F000FEF7EEFE0B20FEF7DFFEFFF755FDFF2483
:10350000F5342046FEF7BAFCFEF782FBFEF7C2FB5D
:10351000F7E700000010024010B500290AD0087833
:10352000002807D005487844FEF708FB002801D0A2
:10353000002010BD0248784410BD00009E0100002C
:103540009601000010B500290AD00878002807D09D
:1035500005487844FEF7F2FA002801D0002010BD9B
:103560000248784410BD00008E0100008601000072
:1035700003B402487844844603BC60475FD8FFFF29
:1035800003B402487844844603BC6047C9DAFFFFAD
:103590000000000000000000010203040607080903
:1035A0000000000001020304000000000000000011
:1035B0003031323334353637383941424344454669
:1035C0004030580030313233343536373839616263
:1035D0006364656640307800040000080000000065
:1035E0000000000200010000103031323334353663
:1035F0003738396162636465667870003031323320
:103600003435363738394142434445465850000036
:1036100002400000000000A0000000000540000083
:10362000000000C8000000000C4000000000409CAA
:1036300000000000194000000020BCBE0000000097
:1036400034400000BFC91B8E00000004B5400000DC
:10365000504BCFD06607E2CF010000006C41000064
:103660003E8251AADFEEA73401000000D9420000DB
:10367000DCB5A0E23A301F97FFFFFFFFB445000022
:10368000FD25A0C8E9A3C14FFFFFFFFFFF3F0000DA
:103690000000008000000000FF3F000000000080EC
:1036A00000000000F03700080000002018000000B3
:1036B000F80000080838000818000020380800004A
:1036C000140100081C00000043000000F8FFFFFF89
:1036D0000C0000000E0000000F0000002E00000093
:1036E0001001000043000000F8FFFFFF00404040D1
:1036F00040404040404041414141414040404040C5
:103700004040404040404040404040404005020270
:10371000020202020202020202020202022020202F
:10372000202020202020200202020202020290908B
:103730009090909010101010101010101010101089
:1037400010101010101010100202020202028888DD
:1037500088888888080808080808080808080808E9
:1037600008080808080808080202020240000000D1
:103770000000000000000000000000000000000049
:103780000000000000000000000000000000000039
:103790000000000000000000000000000000000029
:1037A0000000000000000000000000000000000019
:1037B0000000000000000000000000000000000009
:1037C00000000000000000000000000000000000F9
:1037D00000000000000000000000000000000000E9
:1037E00000000000000000000000000000000000D9
:1037F00000000000000000000100000004000000C4
:083800000000000000127A0034
:04000005080000B53A
:00000001FF
